:04000000803116280D
:10000800803120007F08F000111C0B280C280D28D7
:100018001110911E10281128132891121328700806
:10002800FF00090084319D2C843021008E0080302F
:100038008D008C0100302000D1000030D00000304D
:10004800CF000130CE008830A0001330A1008731E6
:10005800D22780318830F7001330F8000330F900D8
:100068000030FA0086315526803157302000CD0007
:100078004D08F1000630F2000030F3000030863100
:100088007C268031F03020005806031D4D280D30A5
:1000980057060319502851286F280030F100003006
:1000A800F2000630F3000030F40057308631C626DF
:1000B80080310D302000D700F030D8005730CD0007
:1000C8004D08F1000630F2000030F30000308531B1
:1000D800F32580316F285D302000CD004D08F100F8
:1000E8000430F2000030F300063086317C2680317F
:1000F800FA3020005E06031D8328CE305D06031902
:10010800862887289C28CE30DD00FA30DE003C3077
:10011800DF000030E0005D30CD004D08F100043014
:10012800F2000030F30006308531F32580319C2839
:1001380080302000AE002530AF008731BF278031E6
:100148008F31E72780310130F1000030F20087312C
:10015800282780318F31F6278031B2288F31E72761
:1001680080310E302000A0000030A10087314527E3
:1001780080318431DD2480318F31E42780313B3078
:10018800F1000030F200873128278031B228B228E8
:10019800803116282000BD003230BE000030BF007C
:1001A8007E30BC003C082200A000A1012E302000B7
:1001B800BC003C082200A20020003A08BC003C0811
:1001C8002200A40010302000BC003C082200A3003C
:1001D8002530F1000130F20020003D08F300003026
:1001E800F4000830F5000030F6008531C125803173
:1001F800FF302200AD00FE30AE00B001AF0100308C
:100208002000390221300319380203180C290D295E
:1002180014293908C301C3073808C201C2071929BC
:100228002030C2000030C30019293130F1000130FC
:10023800F2003708F3000030F4004308F601F6072F
:100248004208F501F5078531C125803120003E08B7
:10025800FC3EF100FF303F3DF200D4308531572598
:10026800803171082000BC003C082200D1003230E7
:10027800F2000030F300F401203085311A25803176
:100288008B302000B0000030B1008131FF21803177
:1002980020003108C101C1073008C001C00741086A
:1002A8004004031958295929662900308E1D013048
:1002B800BC00BC0DBC0DBC0D0E083C06F7393C0655
:1002C8008E00662908002000A101F41F6C296D2901
:1002D8007A29F109F209F309F409F10A0319F20A72
:1002E8000319F30A0319F40AA101A10AF81F7D29C9
:1002F8007E298E29F509F609F709F809F50A03197F
:10030800F60A0319F70A0319F80A0130F9007908FF
:10031800A1068E290030A5000030A4000030A300FB
:100328000030A200740873047204710403199D2933
:100338009E29E529A001A00AAD290130F135F20D69
:10034800F30DF40D890BA2290130F9007908A007F3
:10035800AD29F41FB029B129A129B329B329013046
:10036800A235A30DA40DA50D890BB4297408780234
:10037800031DC82973087702031DC829720876026D
:10038800031DC82971087502031CCB29CC29D6295D
:100398007108F5027208F63B7308F73B7408F83BDE
:1003A8002214D6290130F436F30CF20CF10C890B27
:1003B800D7290130A002031DE229E329B329E52941
:1003C800E5292108031DE929F529A209A309A4099A
:1003D800A509A20A0319A30A0319A40A0319A50A5D
:1003E800F5292508F4002408F3002308F200220860
:1003F800F100FE29080003302000AC000030AD00F9
:10040800AE01203087317B2781312200220820006D
:10041800B200B3013208B5003308B6002200210843
:100428002000B200B3013208B300B2013208B504AB
:100438003308B6043508013EAC000030363DAD0047
:10044800AE01233087317B27813122002308200029
:10045800B200B30131083306031D342A30083206CE
:100468000319372A382A752A3108300403193D2A16
:100478003E2A752AFF30B000FF30B100842A842A52
:10048800752A30302000B2003208B4005C2A63308C
:10049800F1000030F2002530F3000130F40008309C
:1004A800F5000030F6008531C12581317E2A7E2A8B
:1004B80020003408053E8600013087000108043A10
:1004C80003194B2A7E2A7E2A220028082000B2001F
:1004D800B3013208B0003308B100842A842A7E2A86
:1004E8007E2A220023088B3A0319682A1B3A03192B
:1004F800452A7E2AFF302000B000FF30B100842A50
:1005080008002000B201B3013308803AFF008030B0
:100518007F02031D912A04303202031C942A952A73
:10052800972ABD2ABD2A20002508A101A107240871
:10053800A001A0078631242682312000320809074D
:10054800283E860087012008C03F2108C13F0130AE
:10055800B2070030B33D3308803AFF0080307F0295
:10056800031DB82A04303202031CBB2ABC2A972A6E
:10057800BD2A2000B001B101B201B3013308803AAD
:10058800FF0080307F02031DCB2A04303202031C97
:10059800CE2ACF2AD12AF12AF12A200032080907C7
:1005A800283E86008701403FA600413FA700260855
:1005B800B0072708B13D0130B2070030B33D33081A
:1005C800803AFF0080307F02031DEC2A043032029B
:1005D800031CEF2AF02AD12AF12A0430F100003056
:1005E800F20020003108F401F4073008F301F307A2
:1005F80083310823823172082000A501A5077108FC
:10060800A401A407072B0800F701F21F0C2B0D2BE0
:10061800152BF109F209F10A0319F20AF701F70A91
:10062800152BF41F182B192B232BF309F409F30AA4
:100638000319F40A0130F5007508F706232BF801B1
:10064800F9017208710403192A2B2B2B602BF60170
:10065800F60A382B0130F135F20D890B2F2B0130BA
:10066800F5007508F607382BF21F3B2B3C2B2E2B79
:100678003E2B3E2B0130F835F90D890B3F2B7208C4
:100688007402031D492B71087302031C4C2B4D2B5C
:10069800532B7108F3027208F43B7814532B013082
:1006A800F236F10C890B542B0130F602031D5D2B39
:1006B8005E2B3E2B602B602B7708031D642B6A2B67
:1006C800F809F909F80A0319F90A6A2B7908F201F5
:1006D800F2077808F101F107712B08000030FA00E1
:1006E8000030F9000030F8000030F700A32B01308B
:1006F800F7070030F83D0030F93D0030FA3D740846
:1007080073047204710403198A2B8B2BA32B7A08A8
:10071800803AFF007408803A7F02031D9D2B7308FE
:100728007902031D9D2B72087802031D9D2B710809
:100738007702031CA02BA12BA32BA92BA92B2000EC
:10074800911EA72BA82B7B2BA92B7A08803AFF0098
:100758007408803A7F02031DBB2B73087902031DBE
:10076800BB2B72087802031DBB2B71087702031C90
:10077800BE2BBF2BCC2B74087304720471040319AD
:10078800C62BC72BCC2B0030F1000130F200D62B42
:1007980023001908F500F6017508F1007608F20043
:1007A800D62BD62B08002000A900AA01AB010B2CE0
:1007B80020002608F4002508F3002408F200230886
:1007C800F10083317223833171082000A7002A08C1
:1007D8002907A8002808860001308700270881001B
:1007E8002A082907A7002708860001308700010882
:1007F8002206031D002C012C072C2208031D052CA2
:10080800072C1A2C1A2C0130AA070030AB3D2B08F4
:10081800803AA7002108803A2702031D152C2008DA
:100828002A02031C182C192CDC2B1A2C0800230074
:100838001E129D171D169E1620002608F100270877
:10084800F200890D893B8909F300F4000030F800B3
:100858007A30F7001230F6000030F5008131672158
:10086800843174082000AB007308AA007208A9003C
:100878007108A8000030F4000030F3000030F200E6
:100888004030F1002B08F8002A08F7002908F60084
:100898002808F5008131672184317108FF3E200066
:1008A800AC00FF30723DAD002C0823009B0008000F
:1008B800F70020005408F1000430F136890B612C50
:1008C8007108F2007208F80078087706F1007108DC
:1008D800F8005308F2005208F1000430F135F20D27
:1008E800890B722C7108D2007208D30078080907A6
:1008F800A03E860001308700403FF100413FF200F2
:1009080078080907C03E86008701403FF300413F51
:10091800F4007308F400F30152087306F500530855
:100928007406F60071087504D20072087604D300C4
:100938000800FC0152308400003085000F308F31F0
:10094800F0278431A03084000030850020308F31BA
:10095800F027843120308400013085003C308F310D
:10096800F0278431F53084008730850061308600B7
:10097800003087000A308F31EA278431E83084005C
:1009880086308500C03086000030870020308F31E7
:10099800EA2784310830840087308500A03086003B
:1009A8000130870020308F31EA27843120008031E0
:1009B80018282100A5015530A000AA30A100A401E3
:1009C8006C30AC000F30AD000A302000A4000030BD
:1009D800A500823185228431200025082100A90143
:1009E800A907200024082100A801A8078830AA0028
:1009F8001330AB004830AE003F30AF00203020004D
:100A0800A0000030A100A03085318F25843120005E
:100A180021082100A301A307200020082100A2012A
:100A2800A207A0308731612784310800F600F7015A
:100A3800F801402D77087607F50075088600013023
:100A4800870001088731AA2785317408031D2D2DD9
:100A58003C2D77087607F500750886000130870079
:100A680001087406031D392D3A2D3C2D502D502DAB
:100A78000130F7070030F83D7808803AF500730830
:100A8800803A7502031D4A2D72087702031C4D2D0A
:100A98004E2D1E2D502D502D23009E1C542D552DAE
:100AA800502D562D0800F5007508F3007308F60060
:100AB800F701F801F901702D78087607F30073083B
:100AC8008600013087000108F4007408F707013038
:100AD800F8070030F93D702D7908803AF300720864
:100AE800803A7302031D7A2D71087802031C7D2D4C
:100AF8007E2D602D7F2D7708F300F401F309F409AA
:100B0800F30A0319F40A7308FF3EF1000030743D3C
:100B1800F2008E2D08002000A2008F31F6278531C3
:100B28002000A301A401A92D200023082207FB000F
:100B38007B088600870101088731E4278531013069
:100B48002000A3070030A43DA92D2408803AFB000B
:100B58002108803A7B02031DB32D20082302031CC1
:100B6800B62DB72D982DB82D20005308A101A10747
:100B78005208A001A007C02D08007408FB01FB075C
:100B88007308FA01FA077208F901F9077108F80100
:100B9800F807E32D7A0886007B0887000108F7002C
:100BA8007808860079088700770881000130FA07FD
:100BB8000030FB3D0130F8070030F93DE32D0130EE
:100BC800F5020030F63BFF307606031DED2DFF30B1
:100BD8007506031DF02DF12DCE2DF22D0800F50020
:100BE800F601162E7508760723009100760871071E
:100BF800F400740886008701010893001515553024
:100C08009600AA3096009514092E2000121E0D2E6B
:100C18000E2E092E1212230015110130F40074084B
:100C2800F607162E7308803A803C031D1D2E7208A5
:100C38007602031C202E212EF62D23001511080004
:100C480020002008FB00FB0DFB0D21001D087B0682
:100C580083397B069D001D143230F7000030F80000
:100C68000030F9000030FA0086315526863121001F
:100C78009D143E2E9D18412E422E3E2E432E1C08BA
:100C88002000A301A30721001B082000A201A2073E
:100C980011132308A101A1072208A001A007542EBF
:100CA80008008F31E1278631200096019701013035
:100CB800F1000030F2007A08F401F4077908F30132
:100CC800F307873194278631692E780820001702A8
:100CD800031D702E77081602031C732E742E692EBE
:100CE800782E782E692E692E8F31E12786310800FB
:100CF800F600F701952E76087707230091009513E3
:100D0800151315141308F40077087107F500750812
:100D180086008701740881000130F4007408F70721
:100D2800952E7308803A803C031D9C2E720877022A
:100D3800031C9F2EA02E7F2EA12E0800F501F60180
:100D4800A52E711CA82EA92EAD2E7308F5077408C0
:100D5800F63D0130F335F40D890BAE2E0130F23635
:100D6800F10C890BB32E72087104031DBC2EBD2E25
:100D7800A52EBE2E7608F201F2077508F101F107DB
:100D8800C52E0800F6007608F5007508F700D82E7D
:100D98007108F50077088600870175088100013021
:100DA800F5007508F707D82E0130F3020030F43B40
:100DB800FF307406031DE22EFF307306031DE52E77
:100DC800E62ECC2EE72E0800003400341034003410
:100DD800203400343034003440340034503400348B
:100DE8006034003470340034813400349134003479
:100DF800A1340034B1340034C1340034D134003467
:100E0800E1340034F1340034003400342134003447
:100E1800423400346334003484340034A53400345C
:100E2800C6340034E734003408340034293400343C
:100E38004A3400346B3400348C340034AD3400341C
:100E4800CE340034EF340034F301F401392F21009B
:100E580017141708C13914389700630021001710B8
:100E68000130F3070030F43D392F72087402031D76
:100E78003F2F71087302031C422F432F2B2F442F3F
:100E8800080020002108F201F2072008F101F1070B
:100E98004030F3001F30F4008631A22687317208F3
:100EA800F801F8077108F701F7070030F90000307A
:100EB800FA0086315526873108002000C800480806
:100EC800C4004408B7002030B8000030B900013031
:100ED800C5004508D6075608C600C7014608BA0027
:100EE8004708BB0063308031CE20873108002000DE
:100EF800AF002D08A101A1072C08A001A0072E080A
:100F0800FB007B08A2000030A6000030A5000030DE
:100F1800A4000030A3002F088331D72387310800AD
:100F28007108F500F50EF50DF50D20001808750689
:100F38003F3975069800181499137308F500F50ED3
:100F480018087506CF39750698000800F100710871
:100F5800163A031DB02FB12FB62F20008E11B32FD4
:100F6800B62FB62F23009E1CBA2FBB2FB62FBC2F2F
:100F780071089A00080020000E148E10C32F0E1D51
:100F8800C62FC72FC32FC82F6208A701A70761085C
:100F9800A601A60784311B248731080020008E157E
:100FA8002108F801F8072008F701F7070330F900CE
:100FB8000030FA0086315526873120008E1108004E
:100FC800FA007A08F9000430F936890BE82F790815
:100FD80084315C2487317A080F3984315C24873165
:100FE80008008034253400340034003400340034E0
:060FF8000034FF34FF3459
:101FC20020001810080020008E14080020008E1037
:101FD2000800FE0012001E00FE0BEB2F003464000E
:101FE20080010131890BF12F0034FF30F1007108BB
:0E1FF2002000D400FF30F1007108D500080077
:020000040001F9
:04000E00EAFFFFDE28
:00000001FF
