:100000008031162880342534803120007F08F000AC
:10001000111C0B280C280D281110911E10281128D6
:100020001328911213287008FF0009008F31C42F84
:10003000F7007C08F1000430F136890B1C287108A8
:10004000F2007208F80078087706F1007108F800ED
:1000500020005708F2005608F1000430F135F20D87
:10006000890B2E287108D6007208D7007808090776
:10007000A03E860001308700403FF100413FF20082
:1000800078080907A03E86008701403FF300413F02
:10009000F4007308F400F30156087306F5005708DE
:1000A0007406F60071087504D60072087604D7004D
:1000B0000800F6007608F3007308F7007608F300EE
:1000C00073082000DB00F501F801F90183287808A6
:1000D0007707F30073088600013087000108F400F9
:1000E0007408F50778087707F30073088600013075
:1000F00087000108F40074082000DD000130F807D3
:100100000030F93D83287908803AF3007208803A7C
:100110007302031D8D2871087802031C9028912812
:10012000672892287503FF3AFF3E96280800F600DC
:10013000F701F801BD2877087607F50075088600F5
:100140000130870001088D319C2580317408031D22
:10015000AA28B92877087607F500750886000130C7
:10016000870001087406031DB628B728B928CD28D2
:10017000CD280130F7070030F83D7808803AF500C7
:100180007308803A7502031DC72872087702031CA2
:10019000CA28CB289B28CD28CD2823009E1CD128F7
:1001A000D228CD28D328080000340034103400347D
:1001B00020340034303400344034003450340034BF
:1001C00060340034703400348134003491340034AD
:1001D000A1340034B1340034C1340034D13400349B
:1001E000E1340034F134003400340034003400349D
:0E01F00000340034FF34FF3420008E14080069
:100200008131820702298531902D843021008E00B2
:1002100080308D008C0100302200DF000030DE00D5
:100220000030DD000130DC008830FA001330FB00C4
:100230008D31772581318830F6001330F700033097
:10024000F8000030F9008E31A5268131E830200019
:10025000D2005208F1000630F2000030F300003006
:100260008E317F268131F03021006906031D3A2945
:100270000D30680603193D293E295D290030F10043
:100280000030F2000630F3000030F400E8308E3128
:100290003A2681310D302100E800F030E900E830E5
:1002A0002000D2005208F1000630F2000030F300C6
:1002B00000308E31FC2681315D295F302000D20074
:1002C0005208F1000430F2000030F30006308E31A5
:1002D0007F268131FA3020006006031D7129CE305F
:1002E0005F060319742975298A29CE30DF00FA3098
:1002F000E0003C30E1000030E2005F30D200520804
:10030000F1000430F2000030F30006308E31FC269C
:1003100081318A2980302000CA002530CB008D3100
:10032000892581318D315D25813153302000B70021
:100330004D30B80022005F082000BC0022005E089B
:100340002000BB0022005D082000BA0022005C08EB
:100350002000B900C030BD000030BE000130BF0039
:100360000030C00083312B23813141302000B700A1
:100370004330B8000030BC000030BB000030BA0091
:100380000030B900C130BD000030BE000030BF00F9
:100390000030C00083312B2381310130F100003067
:1003A000F2000130F3000030F40087316D27813115
:1003B0008731F02781318E315C26813190302000E9
:1003C000B0000030B10085310A258131E7290A30BB
:1003D0002000A3000030A400853190258131200049
:1003E0002308D2002408D300D401D5015508B60053
:1003F0005408B5005308B4005208B3000030BA00E6
:100400003E30B9008030B8000030B700843172242B
:1004100081311830200033072200E000FC3020003A
:10042000343D2200E100FF302000353D2200E20093
:10043000FF302000363D2200E30063082000B600B4
:10044000220062082000B500220061082000B400EC
:10045000220060082000B3000030BA00F730B90075
:100460003130B8004030B70084317224813120002F
:1004700036082200E700200035082200E6002000B0
:1004800034082200E500200033082200E40065085B
:100490002000D901D907220064082000D801D8071C
:1004A0008D315D258131220065082000C701C70715
:1004B000220064082000C601C6078830C800133037
:1004C000C9006C30CA000F30CB004830CC003F3040
:1004D000CD008631E22681318031FC2081313B30F4
:1004E000F1000030F2008D31FD258131E729E72947
:1004F000803116280030F8000030F7000030F60098
:100500000030F500FF3071052000A00000307205BA
:10051000A10000307305A20000307405A30018305C
:10052000A035A10DA20DA30D890B902A2008F5047A
:100530002108F6042208F7042308F804FF30A0007D
:100540000030A1000030A2000030A3007108A40018
:100550007208A5007308A6007408A7000830A73623
:10056000A60CA50CA40C890BAF2A2408A00525080D
:10057000A1052608A2052708A3051030A035A10D66
:10058000A20DA30D890BBE2A2008F5042108F6044C
:100590002208F7042308F804FF30A0000030A1006F
:1005A0000030A2000030A3007108A4007208A5006A
:1005B0007308A6007408A7001030A736A60CA50C77
:1005C000A40C890BDD2A2408A0052508A10526080E
:1005D000A2052708A3050830A035A10DA20DA30D83
:1005E000890BEC2A2008F5042108F6042208F704F8
:1005F0002308F804FF30A0000030A1000030A20062
:100600000030A3007108A4007208A5007308A600BA
:100610007408A7001830A736A60CA50CA40C890BEB
:100620000B2B2408A0052508A1052608A2052708EC
:10063000A3052008F5042108F6042208F70423087E
:10064000F8047808F4007708F3007608F2007508DB
:10065000F1002A2B0800200040083F04031D312B25
:10066000322B372B0830C5000030C6003B2B0C3036
:10067000C5000030C6007E30C10041082200A00045
:1006800020004508FC3EC100FF30463DC200420844
:10069000C30043082200A10020004508FC3EC10021
:1006A00041082200A20008302000C10041082200B9
:1006B000A30020003D08C10041082200A400200042
:1006C00038082200A601A607200037082200A5014D
:1006D000A50720003C08F4003B08F3003A08F200AC
:1006E0003908F10082317A22833174082200AA008D
:1006F0007308A9007208A8007108A7002000450827
:10070000FC3EF100FF30463DF2002330803159209D
:1007100083312000C1004108DC004508FC3EF100A7
:10072000FF30463DF2005C08C1004108F300233071
:100730008E31CC2683312000C2004208C40040081C
:100740003F040319A42BA52BAB2B5C08C100410867
:100750002200AB00B22B20005C08C100410822003F
:10076000A700B22B20004608F301F3074508F20169
:10077000F207F401203080319720833120003E08B9
:100780003D040319C42BC52BD02B8830B00000309A
:10079000B10085310A258331D02BD02BD02BD02B23
:1007A00008002000BD003230BE000030BF007E30A7
:1007B000BC003C082200A000A1012E302000BC009B
:1007C0003C082200A20020003A08BC003C0822009D
:1007D000A40010302000BC003C082200A3002530FB
:1007E000F1000130F20020003D08F3000030F40079
:1007F0000830F5000030F6008F312D278331FF30AF
:100800002200AD00FE30AE00B001AF01003020008C
:10081000390221300319380203180F2C102C172C21
:100820003908C101C1073808C001C0071C2C20309D
:10083000C0000030C1001C2C3130F1000130F2004A
:100840003708F3000030F4004108F601F6074008CD
:10085000F501F5078F312D27833120003E08FC3E3E
:10086000F100FF303F3DF2002330803159208331C9
:100870002000BC003C082200D1003230F2000030E1
:10088000F300F40120308031972083312000C20131
:10089000C3013B083A0403194E2C4F2C5E2C8B30BD
:1008A000B0000030B10085310A25833120003108C5
:1008B000C301C3073008C201C2075E2C43084204CB
:1008C0000319632C642C712C00308E1D0130BC0088
:1008D000BC0DBC0DBC0D0E083C06F7393C068E0065
:1008E000712C08002000BD01B61F772C782C852CB8
:1008F000B309B409B509B609B30A0319B40A03194F
:10090000B50A0319B60ABD01BD0ABA1F882C892C85
:10091000992CB709B809B909BA09B70A0319B80A6D
:100920000319B90A0319BA0A0130BB003B08BD0616
:10093000992C0030C1000030C0000030BF000030F2
:10094000BE0036083504340433040319A82CA92C3E
:10095000F02CBC01BC0AB82C0130B335B40DB50D78
:10096000B60D890BAD2C0130BB003B08BC07B82C81
:10097000B61FBB2CBC2CAC2CBE2CBE2C0130BE3503
:10098000BF0DC00DC10D890BBF2C36083A02031DE7
:10099000D32C35083902031DD32C34083802031D2B
:1009A000D32C33083702031CD62CD72CE12C330868
:1009B000B7023408B83B3508B93B3608BA3B3E1499
:1009C000E12C0130B636B50CB40CB30C890BE22C1B
:1009D0000130BC02031DED2CEE2CBE2CF02CF02CB3
:1009E0003D08031DF42C002DBE09BF09C009C10933
:1009F000BE0A0319BF0A0319C00A0319C10A002D50
:100A00004108B6004008B5003F08B4003E08B300F6
:100A1000092D080003302000AC000030AD00AE010D
:100A200020308D31C7258531220022082000B200F8
:100A3000B3013208B5003308B600220021082000B7
:100A4000B200B3013208B300B2013208B504330872
:100A5000B6043508013EAC000030363DAD00AE01B5
:100A600023308D31C7258531220023082000B200B4
:100A7000B30131083306031D3F2D30083206031938
:100A8000422D432D802D310830040319482D492D66
:100A9000802DFF30B000FF30B1008F2D8F2D802DC5
:100AA00030302000B2003208B400672DC030F100B1
:100AB0000030F2002530F3000130F4000830F5007A
:100AC0000030F6008F312D278531892D892D2000AA
:100AD0003408053E8600013087000108043A0319F6
:100AE000562D892D892D220028082000B200B3013F
:100AF0003208B0003308B1008F2D8F2D892D892D3C
:100B0000220023088B3A0319732D1B3A0319502D29
:100B1000892DFF302000B000FF30B1008F2D08007C
:100B20002000B101B2013208803AFF0080307F021C
:100B3000031D9C2D04303102031C9F2DA02DA22DDE
:100B4000C82DC82D20002408FB01FB072308FA014B
:100B5000FA078F3191278531200031080907273E98
:100B6000860087017A08C03F7B08C13F0130B1078A
:100B70000030B23D3208803AFF0080307F02031D12
:100B8000C32D04303102031CC62DC72DA22DC82D44
:100B90002000AF01B001B101B2013208803AFF007C
:100BA00080307F02031DD62D04303102031CD92D65
:100BB000DA2DDC2DFC2DFC2D200031080907273E05
:100BC00086008701403FA500413FA6002508AF07EA
:100BD0002608B03D0130B1070030B23D3208803AFE
:100BE000FF0080307F02031DF72D04303102031C0B
:100BF000FA2DFB2DDC2DFC2D0430F1000030F2002D
:100C000020003008F401F4072F08F301F3078631C0
:100C10001326853172082000A401A4077108A301DE
:100C2000A307122E0800F701F21F172E182E202EF0
:100C3000F109F209F10A0319F20AF701F70A202E65
:100C4000F41F232E242E2E2EF309F409F30A031980
:100C5000F40A0130F5007508F7062E2EF801F901A7
:100C6000720871040319352E362E6B2EF601F60A22
:100C7000432E0130F135F20D890B3A2E0130F5008B
:100C80007508F607432EF21F462E472E392E492EA1
:100C9000492E0130F835F90D890B4A2E720874027D
:100CA000031D542E71087302031C572E582E5E2EFE
:100CB0007108F3027208F43B78145E2E0130F236AC
:100CC000F10C890B5F2E0130F602031D682E692E90
:100CD000492E6B2E6B2E7708031D6F2E752EF8098B
:100CE000F909F80A0319F90A752E7908F201F207D1
:100CF0007808F101F1077C2E08000030FA0000307E
:100D0000F9000030F8000030F700AE2E0130F70790
:100D10000030F83D0030F93D0030FA3D74087304AE
:100D2000720471040319952E962EAE2E7A08803A1D
:100D3000FF007408803A7F02031DA82E7308790211
:100D4000031DA82E72087802031DA82E71087702D1
:100D5000031CAB2EAC2EAE2EB42EB42E2000911E52
:100D6000B22EB32E862EB42E7A08803AFF00740875
:100D7000803A7F02031DC62E73087902031DC62E1A
:100D800072087802031DC62E71087702031CC92E53
:100D9000CA2ED72E74087304720471040319D12E5D
:100DA000D22ED72E0030F1000130F200E12E2300C8
:100DB0001908F500F6017508F1007608F200E12E39
:100DC000E12E08002100CD015530C800AA30C9002D
:100DD000CC0120004B082100D501D50720004A088E
:100DE0002100D401D407200047082100D101D107F8
:100DF000200046082100D001D0072000490821002A
:100E0000D301D307200048082100D201D2072000D7
:100E10004D082100D701D70720004C082100D6013A
:100E2000D60720302000A0000030A100C8308F314C
:100E30005F278631200021082100CB01CB0720004D
:100E400020082100CA01CA07C8308D31E02586314B
:100E500008002000A900AA01AB015D2F2000260890
:100E6000F4002508F3002408F2002308F10086317D
:100E70007D26873171082000A7002A082907A800CD
:100E80002808860001308700270881002A082907E2
:100E9000A700270886000130870001082206031DED
:100EA000522F532F592F2208031D572F592F6C2FC4
:100EB0006C2F0130AA070030AB3D2B08803AA70009
:100EC0002108803A2702031D672F20082A02031CED
:100ED0006A2F6B2F2E2F6C2F080021001E088F39D0
:100EE00010389E00720871040319772F782F902F05
:100EF0000130F500730A7D2FF535890B7C2F7508BD
:100F0000F60076088D040130F500730A882FF53558
:100F1000890B872F7508F600760823008D04A82F0B
:100F20000130F500730A952FF535890B942F75085C
:100F3000F600760821008C040130F500730AA12F19
:100F4000F535890BA02F7508F600760823008C0470
:100F5000FC3021009E051E119E179D1308002300E2
:100F60001E129D171D169E1620004208B30043084E
:100F7000B400890D893B8909B500B6000030BA007C
:100F80007A30B9001230B8000030B70084317224D2
:100F9000873120003608C7003508C6003408C50070
:100FA0003308C4000030B6000030B5000030B40093
:100FB0004030B3004708BA004608B9004508B800F9
:100FC0004408B70084317224873120003308FF3E83
:100FD000C800FF30343DC900480823009B000800CA
:100FE000FF30F1007108FC00FF30F10071082000B3
:100FF000DA000800640080010131890BFB2F003406
:101AA800200018100800FE0012001E00FE0B582D22
:101AB800003420008E10602D0E1A632D642D602DC9
:101AC800652D0800FA007A08F9000430F936890B08
:101AD8006A2D7908803118208D317A080F398031C4
:101AE80018208D31080020008E157B08F701F707B4
:101AF8007A08F601F6070330F8000030F9008E3155
:101B0800A5268D3120008E11080020000E148E109D
:101B18008D2D0E1D902D912D8D2D922D6408C301B4
:101B2800C3076308C201C2078731AF278D31080098
:101B3800F1007108163A031DA22DA32DA82D20002F
:101B48008E11A52DA82DA82D23009E1CAC2DAD2DE2
:101B5800A82DAE2D71089A0008007108F500F50E41
:101B6800F50DF50D2000180875063F397506980023
:101B7800181499137308F500F50E18087506CF396F
:101B88007506980008002000AF002D08A101A107E4
:101B98002C08A001A0072E08FB007B08A20000303B
:101BA800A6000030A5000030A4000030A3002F08D4
:101BB800873129278D3108002000C500DE08031D64
:101BC800E62DE72DEC2D0130C4004408DE07EC2D8E
:101BD8004508C4004408B7002030B8000030B900F8
:101BE8000030BA000030BB00C0308331D1238D31C2
:101BF8000800F301F4010E2E210017141708C1394B
:101C0800143897006300210017100130F3070030E3
:101C1800F43D0E2E72087402031D142E710873020F
:101C2800031C172E182E002E192E0800003400341D
:101C380021340034423400346334003484340034B2
:101C4800A5340034C6340034E73400340834003492
:101C5800293400344A3400346B3400348C34003472
:101C6800AD340034CE340034EF340034F600760856
:101C7800F5007508F7004C2E7108F5007708860006
:101C88008701750881000130F5007508F7074C2EAB
:101C98000130F3020030F43BFF307406031D562E6A
:101CA800FF307306031D592E5A2E402E5B2E080056
:101CB80004302000C60046082100CD005530C80079
:101CC800AA30C900CC0120302000A0000030A100BB
:101CD800C8308F315F278E31200021082100CB01C9
:101CE800CB07200020082100CA01CA07C8308D315F
:101CF800E0258E310800F600F701982E7608770760
:101D0800230091009513151315141308F400770890
:101D18007107F50075088600870174088100013095
:101D2800F4007408F707982E7308803A803C031D66
:101D38009F2E72087702031CA22EA32E822EA42E99
:101D480008008D3154258E3120009601970101300D
:101D5800F1000030F2007908F401F4077808F30183
:101D6800F3078D31B1258E31B92E7708200017027F
:101D7800031DC02E76081602031CC32EC42EB92ECE
:101D8800C82EC82EB92EB92E8D3154258E31080093
:101D9800F700F6017708F40074082000DB00F8016A
:101DA800F901E62E78087707F400740886000130F8
:101DB80087000108F5007508F6070130F8070030BC
:101DC800F93DE62E7908803AF4007208803A7402E8
:101DD800031DF02E71087802031CF32EF42ED62E64
:101DE800F52E7308F4007408F6077608FB2E080031
:101DF800F500F6011F2F7508760723009100760875
:101E08007107F4007408860087010108930015150E
:101E180055309600AA3096009514122F2000121EF5
:101E2800162F172F122F1212230015110130F4004C
:101E38007408F6071F2F7308803A803C031D262F6D
:101E480072087602031C292F2A2FFF2E2300151152
:101E580008007408FB01FB077308FA01FA07720807
:101E6800F901F9077108F801F8074F2F7A08860079
:101E78007B0887000108F700780886007908870042
:101E8800770881000130FA070030FB3D0130F80780
:101E98000030F93D4F2F0130F5020030F63BFF309E
:101EA8007606031D592FFF307506031D5C2F5D2F25
:101EB8003A2F5E2F08002000A2008731F0278F31CB
:101EC8002000A301A401792F200023082207FB008A
:101ED8007B088600870101088D3166258F31013026
:101EE8002000A3070030A43D792F2408803AFB0086
:101EF8002108803A7B02031D832F20082302031C3C
:101F0800862F872F682F882F20005708A101A10747
:101F18005608A001A007902F08007A082000A0000A
:101F2800A00DA00D21001D082000200683392006E1
:101F380021009D001D143230F6000030F7000030FB
:101F4800F8000030F9008E31A5268F3121009D144C
:101F5800AD2F9D18B02FB12FAD2FB22F1C08200028
:101F6800A201A20721001B082000A101A10711134B
:101F78002208FB01FB072108FA01FA07C32F080012
:101F8800FC0156308400003085000D308731FA2777
:101F98008F31C83084000030850026308731FA2719
:101FA8008F3120308400013085003C308731FA279A
:101FB8008F31803102208F31E300803103208F314F
:101FC800E400D430840080308500A03086000030E2
:101FD800870028308D3157258F311A3084008E3094
:101FE8008500A03086000130870020308D315725CC
:081FF8008F3120008131052921
:020000040001F9
:04000E00EAFFFFDE28
:00000001FF
