:0400000080310F2814
:10000800803120007F08F00011181110911A911208
:100018007008FF0009008731432F943021008E00BB
:100028008D018C0188302000A1001330A2008D3191
:10003800DD25803120000D14E830D9005908F10081
:100048000630F2000030F30000308E31C4268031D3
:10005800F03021006906031D33280D3068060319A6
:1000680053280030F1000030F2000630F300003071
:10007800F400E8308E314C2680310D302100E80044
:10008800F030E900E8302000D9005908F1000630C6
:10009800F2000030F30000308F317B2780316B3065
:1000A8002000D9005908F1000430F2000030F300B4
:1000B80006308E31C4268031FA3020006C06031DCC
:1000C8006728CE306B0603197D28CE30EB00FA3056
:1000D800EC003C30ED000030EE006B30D9005908E0
:1000E800F1000430F2000030F30006308F317B2736
:1000F800803180302000AD002530AE008E3186265C
:10010800803153302000BD004D30BE000030C200A9
:100118000030C1000030C0000130BF00C030C30053
:100128000030C4000130C5000030C600823197227B
:10013800803120003E08E301E3073D08E201E207C1
:10014800630862040319AC288D31A8258031AB28D7
:1001580001302000E0070030E13D4130BD00433070
:10016800BE000030C2000030C1000030C0000030C6
:10017800BF00C130C3000030C4000030C5000030EB
:10018800C60082319722803120003E08E301E30750
:100198003D08E201E207630862040319D7288D319C
:1001A800A8258031D62801302000E0070030E13D45
:1001B800F101F10A013086318E2680318D31C32557
:1001C80080318E31E526803190302000AE0000303D
:1001D800AF000030B0000030B100813129218031FA
:1001E80020000D1020008E150A308631002680313F
:1001F80020002708DA002808DB00DC01DD01843153
:10020800B424803120005B08CD01CD075A08CC0109
:10021800CC078830CE001330CF006C30D0000F30C0
:10022800D1004830D2003F30D3008531B12580312C
:100238008D31AB25803120008E113B30F10000302C
:10024800F2008E3119268031F6282000310830045A
:10025800031D34290030BC000030BB0000303929B0
:100268000030BC003D30BB000930BA000030B90096
:100278000330A0000030A100A2013C08A6003B0802
:10028800A5003A08A4003908A300203085310A25C2
:10029800813120002108B501B5072008B401B40751
:1002A8003508803AFF0080307F02031D5D29033046
:1002B800340203186529FE302000AE00FF30AF007D
:1002C8000800220022082000B200B3013208B7005B
:1002D8003308B800220021082000B200B301320818
:1002E800B300B2013208B7043308B8043708013E36
:1002F800A0000030383DA100A2013C08A6003B0840
:10030800A5003A08A4003908A300233085310A253E
:100318008131220023082000B200B3012F083306E0
:10032800031D98292E0832060319D5292F082E04F3
:10033800031D3C29D52930302000B2003208B60010
:10034800B529C030F1000030F2002530F30001304B
:10035800F4000830F5000030F6008F31A62781310F
:10036800E12920003608053E860001308700010893
:10037800043A0319A529E129E129220028082000C7
:10038800B200B3013208AE003308AF000800220003
:1003980027082000B200B3013208AE003308AF00CE
:1003A800080022002308883A0319CB29033A0319C5
:1003B800C1291B3A03199F29E129FF302000AE000B
:1003C800FF30AF0008000030F8000030F7000030C0
:1003D800F6000030F500FF3071052000A000003065
:1003E8007205A10000307305A20000307405A30057
:1003F8001830A035A10DA20DA30D890BFD292008E9
:10040800F5042108F6042208F7042308F804FF304D
:10041800A0000030A1000030A2000030A300710845
:10042800A4007208A5007308A6007408A700083085
:10043800A736A60CA50CA40C890B1C2A2408A00519
:100448002508A1052608A2052708A3051030A03510
:10045800A10DA20DA30D890B2B2A2008F504210854
:10046800F6042208F7042308F804FF30A00000303F
:10047800A1000030A2000030A3007108A400720897
:10048800A5007308A6007408A7001030A736A60CAC
:10049800A50CA40C890B4A2A2408A0052508A10547
:1004A8002608A2052708A3050830A035A10DA20D2E
:1004B800A30D890B592A2008F5042108F6042208FF
:1004C800F7042308F804FF30A0000030A100003032
:1004D800A2000030A3007108A4007208A5007308E8
:1004E800A6007408A7001830A736A60CA50CA40C03
:1004F800890B782A2408A0052508A1052608A20545
:100508002708A3052008F5042108F6042208F704A3
:100518002308F8047808F4007708F3007608F20056
:100528007508F1000800200046084504031D9E2AAE
:1005380008309F2A0C30CB000030CC004B08C70095
:100548004708CD007E30C70047082200A0002000E1
:100558004D08FC3EC700FF3003180030C8004808AB
:10056800C90049082200A10020004D08FC3EC70030
:1005780047082200A20008302000C70047082200D0
:10058800A30020004308C70047082200A400200059
:100598003E082200A601A60720003D082200A5016A
:1005A800A50720004208F4004108F3004008F200C3
:1005B8003F08F1008131E721823174082200AA0046
:1005C8007308A9007208A8007108A70020004D0848
:1005D800FC3EF100FF3003180030F20023308F3169
:1005E8002B2782312000C7004708E7004D08FC3E52
:1005F800F100FF3003180030F2006708C700470811
:10060800F30023308731D92782312000C8004808F9
:10061800CA00460845040319172B6708C70047088E
:100628002200AB001D2B20006708C70047082200E6
:10063800A70020004D08C700C8014708F200480875
:10064800F300F40120308731A827823120004408C4
:1006580043040319412B8830AE000030AF0001304D
:10066800B0000030B1008131292120002F08BE01DF
:10067800BE072E08BD01BD070800BD01BE01080068
:100688002000C3007E30C20042082200A000A10161
:100698002E302000C20042082200A200200040089C
:1006A800C20042082200A40010302000C200420804
:1006B8002200A3002530F1000130F2002000430899
:1006C800F3000030F4000830F5000030F6008F31F8
:1006D800A6278331FF302200AD00FE30AE00B00106
:1006E800AF01003020003F02213003193E020318F9
:1006F800842B3F08C501C5073E08C401C407882BE1
:100708002030C4000030C5003130F1000130F20063
:100718003D08F3000030F4004508F601F6074408E8
:10072800F501F5078F31A62783312E30F10000300F
:10073800F20023308F312B2783312000C20042087A
:100748002200D1003230F2000030F300F4012030F2
:100758008731A82783312000C601C701410840041A
:100768000319D22B8B30AE000030AF000130B0003F
:100778000030B10081312921833120002F08C701C1
:10078800C7072E08C601C607FF304706031DCE2B34
:10079800FE304606031DD22B8D31EE25200047087A
:1007A800BE01BE074608BD01BD0708002000A10123
:1007B800F41FEB2BF109F209F309F409F10A031903
:1007C800F20A0319F30A0319F40AA101A10AF81F8E
:1007D800FC2BF509F609F709F809F50A0319F60AD1
:1007E8000319F70A0319F80A0130F9007908A10674
:1007F8000030A5000030A4000030A3000030A200A3
:1008080074087304720471040319452CA001A00A2A
:10081800F41B1A2C0130F135F20DF30DF40D890B90
:100828000F2C0130F9007908A0070C2C0130A235F3
:10083800A30DA40DA50D890B1B2C74087802031DAC
:100848002F2C73087702031D2F2C72087602031DC4
:100858002F2C71087502031C3A2C7108F5027208D6
:10086800F63B7308F73B7408F83B22140130F43662
:10087800F30CF20CF10C890B3B2C0130A002031D88
:100888001A2C21080319532CA209A309A409A509A4
:10089800A20A0319A30A0319A40A0319A50A250819
:1008A800F4002408F3002308F2002208F1000800ED
:1008B80021009A1E5C2C0030FA000030F90000304C
:1008C800F8000030F7002000911A8C2C0130F7074F
:1008D8000030F83D0030F93D0030FA3D74087304EB
:1008E800720471040319672C7A08803AFF007408AF
:1008F800803A7F02031D8A2C73087902031D8A2C13
:1009080072087802031D8A2C71087702031C672C71
:100918007A08803AFF007408803A7F02031D9E2CF3
:1009280073087902031D9E2C72087802031D9E2C01
:1009380071087702031CAB2C7408730472047104E9
:100948000319AB2C0030F1000130F200080023003D
:100958001908F500F6017508F1007608F20008009C
:1009680020008E100030B2000030B1000030B0001E
:100978000030AF000E1EDC2C0130AF070030B03D58
:100988000030B13D0030B23D3208803AFF000030FF
:10099800803A7F02031DDA2C7A303102031DDA2CEB
:1009A80012303002031DDA2C01302F02031CBE2C3A
:1009B8003208803AFF000030803A7F02031DEE2C97
:1009C8007A303102031DEE2C11303002031DEE2C5B
:1009D800FF302F02031C08000E1E08000D148D3175
:1009E800A825843101302000A1000030A2008E31FA
:1009F8003126843180302000AD002530AE008E31A4
:100A0800862620000D10EA01EA0A08002000A90045
:100A1800AC01AD012D08803AA7002108803A2702D1
:100A2800031D182D20082C0203185B2D2000260812
:100A3800F4002508F3002408F2002308F1008431AB
:100A48005C24853172082000AB01AB077108AA014C
:100A5800AA0701302B06031D332D00302A0603197F
:100A6800412D2A08A7002C082907A8002808860075
:100A78000130870027088100482D2D08A101A10712
:100A88002C08A001A00708002C082907A7002708A0
:100A980086000130870001082206031D562D220812
:100AA800031D5B2D0130AC070030AD3D0E2D21003C
:100AB80017100800F701F21F682DF109F209F10A71
:100AC8000319F20AF701F70AF41F732DF309F40961
:100AD800F30A0319F40A0130F5007508F706F8015E
:100AE800F901720871040319A22DF601F60AF21B26
:100AF800872D0130F135F20D890B7E2D0130F5007F
:100B08007508F6077B2D0130F835F90D890B882D0E
:100B180072087402031D922D71087302031C992D2B
:100B28007108F3027208F43B78140130F236F10CC4
:100B3800890B9A2D0130F602031D872D77080319BA
:100B4800AA2DF809F909F80A0319F90A7908F2012E
:100B5800F2077808F101F10708002100CD015530AE
:100B6800C800AA30C900CC01200051082100D501D5
:100B7800D507200050082100D401D40720004D08D3
:100B88002100D101D10720004C082100D001D00755
:100B980020004F082100D301D30720004E08210070
:100BA800D201D207200053082100D701D70720001F
:100BB80052082100D601D607200069356A04D400FE
:100BC80054082100D80020302000A0000030A100E7
:100BD800C8308F31D3278531200021082100CB016F
:100BE800CB07200020082100CA01CA072000EA011B
:100BF800C8308F31072708002000B300B601043041
:100C0800360203181C2E33088731762786312000D8
:100C180036352B3E860087012108C03F2208C13F98
:100C28000130A9002908B60704303602031C072E34
:100C3800B401B501B601043036020318372E363533
:100C48002B3E86008701403FA900413FAA002908A2
:100C5800B4072A08B53D0130A9002908B6070430B1
:100C68003602031C232E0430F1000030F200350850
:100C7800F401F4073408F301F30785315E2572089F
:100C88002000A801A8077108A701A7070800F70016
:100C98007C08F1000430F136890B4F2E7108F20000
:100CA8007208F80078087706F1007108F80020004B
:100CB8005F08F2005E08F100F10EF20EF030F20566
:100CC80071080F39F204F030F1057108DE0072087E
:100CD800DF007835A03E860001308700403FF100F4
:100CE800413FF2007835A03E86008701403FF3007F
:100CF800413FF4007308F400F3015E087306F50041
:100D08005F087406F60071087504DE007208760440
:100D1800DF000800F40021001E088F3910389E00FB
:100D280074080319AF2E0130F200710A9C2EF235B7
:100D3800890B9B2E7208F30073088D040130F200B2
:100D4800710AA72EF235890BA62E7208F3007308D4
:100D580023008D04C72E0130F200710AB42EF2353B
:100D6800890BB32E7208F300730821008C0401303C
:100D7800F200710AC02EF235890BBF2E7208F300FB
:100D8800730823008C04FC3021009E051E119E1759
:100D98009D1308008D31A525863120009601970105
:100DA8000130F1000030F2007A08F401F407790804
:100DB800F301F3078E31032686312000A0010330AA
:100DC80020020318052F1818FD2E0130F1000030FD
:100DD800F2007A08F401F4077908F301F3078E3179
:100DE800032686312000960197010130FB007B081D
:100DF800A00778081702031D032F77081602031CA3
:100E0800E32E03302002031C0B2FE901E90A8D3180
:100E1800A525080023001E129D171D169E162000EA
:100E28002608F1002708F200890D893B8909F3009B
:100E3800F4000030F8007A30F7001230F600003085
:100E4800F5008331DA23873171082000A800720881
:100E5800A9007308AA007408AB000630AC00AB37D1
:100E6800AA0CA90CA80CAC0B332F2808FF3EFA00DB
:100E7800FF30293DFB007A0823009B000800FC0195
:100E88005E3084000030850011308D31B425873103
:100E9800C83084000030850026308D31B425873174
:100EA80020308400013085003C308D31B4258731F5
:100EB800533084008F308500A030860000308700D2
:100EC80028308D31AE258731A43084008E308500DE
:100ED800A03086000130870020308D31AE252000FB
:100EE800803111282000A4002408A300A30DA30D1D
:100EF80021001D08200023068339230621009D00B8
:100F08001D143230F7000030F8000030F9000030CE
:100F1800FA008631CE26873121009D149D18922F24
:100F28001C082000A601A60721001B082000A50117
:100F3800A507111321001D1020002608A201A207F1
:100F48002508A101A1070800F600F701F8017808B3
:100F5800803AF5007308803A7502031DB52F7208B0
:100F680077020318D52F77087607F50075088600ED
:100F78000130870001088D31BA25873174080319BB
:100F8800D02F77087607F5007508860001308700AE
:100F9800010874060319D52F0130F7070030F83D12
:100FA800AB2F23009E180800D52FF600F701F80193
:100FB800F9017908803AF4007208803A7402031D36
:100FC800E72F710878020318F92F78087607F400DC
:100FD80074088600013087000108F5007508F707D6
:100FE8000130F8070030F93DDD2F7308F40074086C
:060FF800F707770808006E
:101B4A0020001810080020000E10080020008E1433
:101B5A000800FE0012001E00FE0BAF2D00346400C8
:101B6A0080010131890BB52D0034F10021009A1E44
:101B7A00BB2D23009E1CBE2D9A000800FF30F100E9
:101B8A007108FC00FF30F10071082000E60008002F
:101B9A00FA007A08F9000430F936890BD12D790850
:101BAA0086314B268D317A080F3986314B2608004B
:101BBA0020008E152208F801F8072108F701F70717
:101BCA000330F9000030FA008631CE2620008E114B
:101BDA0008008D31A8258D3101302000A100003088
:101BEA00A2008E3131268D3120006508AE01AE0784
:101BFA006408AD01AD078E31862608007108F5002C
:101C0A00F50EF50DF50D2000180875063F39750615
:101C1A009800181499137308F500F50E180875063C
:101C2A00CF39750698000800F301F40172087402AE
:101C3A00031D212E710873020318080021001714CE
:101C4A001708C139143897006300210017100130B2
:101C5A00F3070030F43D1B2E20002208F201F207A0
:101C6A002108F101F1074030F3001F30F4008E31F2
:101C7A0069268E317208F801F8077108F701F7072B
:101C8A000030F9000030FA008631CE260800F6004E
:101C9A007608F5007508F7000130F3020030F43BCE
:101CAA00FF307406031D5B2EFF307306031908000C
:101CBA007108F500770886008701750881000130F0
:101CCA00F5007508F707512EF501F601711C712E02
:101CDA007308F5077408F63D0130F335F40D890BE6
:101CEA00722E0130F236F10C890B772E72087104CC
:101CFA00031D6B2E7608F201F2077508F101F10750
:101D0A00080020000E148E100E1D892E0E1A8B2E1E
:101D1A002E08A701A7072D08A601A60787310E27B7
:101D2A008E3120002E08E501E5072D08E401E407BD
:101D3A000130F1000030F2008E311926080000341B
:101D4A00003421340034423400346334003484349F
:101D5A000034A5340034C6340034E734003408347F
:101D6A000034293400344A3400346B3400348C345F
:101D7A000034AD340034CE340034EF340034F6008D
:101D8A00F7017308803A803C031DCD2E7208770252
:101D9A000318080076087707230091009513151396
:101DAA0015141308F40077087107F5007508860002
:101DBA008701740881000130F4007408F707C62E01
:101DCA0004302000CC004C082100CD005530C8005A
:101DDA00AA30C900CC0120302000A0000030A100A8
:101DEA00C8308F31D3278E31200021082100CB0142
:101DFA00CB07200020082100CA01CA07C8308F314A
:101E0A00072708002000CA00E808031D102F013028
:101E1A00C8004808E807CB01CB0ACB080319080019
:101E2A004A08C8004808BD002030BE000030BF0084
:101E3A000030C0000030C100C030833144238F31EC
:101E4A0020003D08C9004908CB00122FF50075088B
:101E5A00F3007308F600F701F801F9017908803AEE
:101E6A00F3007208803A7302031D3D2F710878024D
:101E7A0003184F2F78087607F3007308860001309D
:101E8A0087000108F4007408F7070130F8070030EA
:101E9A00F93D332F7703FF3AFF3E08000034003440
:101EAA0010340034203400343034003440340034E8
:101EBA0050340034603400347034003481340034D7
:101ECA0091340034A1340034B1340034C1340034C4
:101EDA00D1340034E1340034F134003400340034B5
:101EEA000034003400340034FF34FF34F500F601C6
:101EFA007308803A803C031D842F72087602031807
:101F0A00A32F750876072300910076087107F4005D
:101F1A00740886008701010893001515553096004C
:101F2A00AA30960095142000121E982F1212230030
:101F3A0015110130F4007408F6077D2F23001511DE
:101F4A0008007408FB01FB077308FA01FA07720814
:101F5A00F901F9077108F801F8070130F5020030B4
:101F6A00F63BFF307606031DBC2FFF3075060319BA
:101F7A0008007A0886007B0887000108F7007808BD
:101F8A00860079088700770881000130FA07003057
:101F9A00FB3D0130F8070030F93DB22F2000A200C6
:101FAA008D31C3258F312000A301A4012408803A72
:101FBA00FB002108803A7B02031DE52F200823023B
:101FCA000318F82F200023082207FB007B0886004D
:101FDA00870101088D31CD258F3101302000A307FB
:101FEA000030A43DDB2F20005F08A101A1075E0895
:061FFA00A001A007080091
:020000040001F9
:04000E00EAFFFFDE28
:00000001FF
