:0400000080310F2814
:10000800803120007F08F00011181110911A911208
:100018007008FF0009008F310D2F8D313025803198
:100028002000960197010130F1000030F2007A08B3
:10003800F401F4077908F301F3078D316D25803158
:100048002000A0010330200203184828181840286F
:100058000130F1000030F2007A08F401F407790861
:10006800F301F3078D316D2580312000960197014A
:100078000130FB007B08A00778081702031D4628FB
:1000880077081602031C262803302002031C4F2879
:100098002100AB01AB0A8D31302508000034003453
:1000A8001034003420340034303400344034003408
:1000B80050340034603400347034003481340034F7
:1000C80091340034A1340034B1340034C1340034E4
:1000D800D1340034E1340034F134003400340034D5
:1000E800213400344234003463340034843400341E
:1000F800A5340034C6340034E734003408340034FE
:10010800293400344A3400346B3400348C340034DD
:10011800AD340034CE340034EF340034F400210020
:100128001E088F3910389E0074080319B32801304F
:10013800F200710AA028F235890B9F287208F30093
:1001480073088D040130F200710AAB28F235890B6F
:10015800AA287208F300730823008D04CB28013005
:10016800F200710AB828F235890BB7287208F30033
:10017800730821008C040130F200710AC428F2359A
:10018800890BC3287208F300730823008C04FC3021
:1001980021009E051E119E179D1308007408FB017F
:1001A800FB077308FA01FA077208F901F9077108E1
:1001B800F801F8070130F5020030F63BFF3076060B
:1001C800031DE828FF307506031908007A08860021
:1001D8007B0887000108F7007808860079088700FF
:1001E800770881000130FA070030FB3D0130F8073D
:0601F8000030F93DDE2895
:1002000081318207022987315E2F943021008E00D0
:100210008D018C0188302000A1001330A2008731AD
:10022000EC27813120000D14CD302100D700570874
:10023000F1000630F2000030F30000308E31082665
:100240008131F03021004E06031D28290D304D0666
:10025000031947290030F1000030F2000630F300A6
:100260000030F400CD308D31CE2581310D302100AC
:10027000CD00F030CE00CD30D7005708F100063069
:10028000F2000030F30000308E31E2268131D330AD
:100290002100D7005708F1000430F2000030F300CD
:1002A00006308E3108268131FA3021005406031DB4
:1002B0005B29CE30530603197129CE30D300FA30B2
:1002C000D4003C30D5000030D600D330D7005708DA
:1002D000F1000430F2000030F30006308E31E226E7
:1002E000813180302000CE002530CF008E3129268C
:1002F000813153302000BD004D30BE000030C200BF
:100300000030C1000030C0000130BF00C030C30069
:100310000030C4000130C5000030C6008331F52331
:10032000813120003E082100A501A50720003D08DD
:100330002100A401A407250824040319A3298D3151
:1003400033258131A22901302100A2070030A33DCD
:1003500041302000BD004330BE000030C2000030FC
:10036000C1000030C0000030BF00C130C300003009
:10037000C4000030C5000030C6008331F523813150
:1003800020003E082100A501A50720003D0821000E
:10039000A401A407250824040319D2298D3133258B
:1003A0008131D12901302100A2070030A33DF101A4
:1003B000F10A01308031922081318D315325813114
:1003C0008E314A26813190302000AE000030AF00DF
:1003D0000030B0000030B10082318722813120002E
:1003E0000D100A302100D70057082000A7008731E0
:1003F0005E278131200027082100D800200028082E
:100400002100D900DA01DB015B082000B9002100DE
:100410005A082000B800210059082000B700210028
:1004200058082000B6000030BD003E30BC008030CF
:10043000BB000030BA0085313825813118302000EA
:1004400036072100E000FC302000373D2100E100AC
:10045000FF302000383D2100E200FF302000393D10
:100460002100E30063082000B90021006208200099
:10047000B800210061082000B700210060082000BA
:10048000B6000030BD00F730BC003130BB0040305A
:10049000BA00853138258131200039082100DF007C
:1004A000200038082100DE00200037082100DD0090
:1004B000200036082100DC0020008E15863112262F
:1004C000813121005D082000E001E00721005C0887
:1004D0002000DF01DF078830E1001330E2006C30DC
:1004E000E3000F30E4004830E5003F30E60087319C
:1004F000102781318731FD27813120008E113B305B
:10050000F1000030F2008D3183258131F129200086
:1005100031083004031D922A0030BC000030BB00BB
:100520000030972A0030BC003D30BB000930BA00D3
:100530000030B9000330A0000030A100A2013C0847
:10054000A6003B08A5003A08A4003908A300203003
:1005500086316926823120002108B501B5072008BF
:10056000B401B4073508803AFF0080307F02031DD4
:10057000BB2A033034020318C32AFE302000AE0029
:10058000FF30AF000800220022082000B200B301B3
:100590003208B7003308B800220021082000B2005A
:1005A000B3013208B300B2013208B7043308B8040B
:1005B0003708013EA0000030383DA100A2013C08F0
:1005C000A6003B08A5003A08A4003908A300233080
:1005D000863169268231220023082000B200B3014F
:1005E0002F083306031DF62A2E0832060319332B73
:1005F0002F082E04031D9A2A332B30302000B2001E
:100600003208B600132BE430F1000030F200253040
:10061000F3000130F4000830F5000030F6008031BE
:10062000D22082313F2B20003608053E8600013063
:1006300087000108043A0319032B3F2B3F2B2200AC
:1006400028082000B200B3013208AE003308AF0022
:100650000800220027082000B200B3013208AE00D3
:100660003308AF00080022002308883A0319292B19
:10067000033A03191F2B1B3A0319FD2A3F2BFF30A6
:100680002000AE00FF30AF0008000030F80000305E
:10069000F7000030F6000030F500FF307105200053
:1006A000A00000307205A10000307305A2000030E8
:1006B0007405A3001830A035A10DA20DA30D890B60
:1006C0005B2B2008F5042108F6042208F704230810
:1006D000F804FF30A0000030A1000030A20000307C
:1006E000A3007108A4007208A5007308A60074088E
:1006F000A7000830A736A60CA50CA40C890B7A2BF2
:100700002408A0052508A1052608A2052708A30599
:100710001030A035A10DA20DA30D890B892B200847
:10072000F5042108F6042208F7042308F804FF3032
:10073000A0000030A1000030A2000030A30071082A
:10074000A4007208A5007308A6007408A700103062
:10075000A736A60CA50CA40C890BA82B2408A00571
:100760002508A1052608A2052708A3050830A035FD
:10077000A10DA20DA30D890BB72B2008F5042108AC
:10078000F6042208F7042308F804FF30A000003024
:10079000A1000030A2000030A3007108A40072087C
:1007A000A5007308A6007408A7001830A736A60C89
:1007B000A50CA40C890BD62B2408A0052508A1059F
:1007C0002608A2052708A3052008F5042108F60439
:1007D0002208F7042308F8047808F4007708F300E7
:1007E0007608F2007508F10008002000460845046C
:1007F000031DFC2B0830FD2B0C30CB000030CC004F
:100800004B08C7004708CD007E30C70047082200CC
:10081000A00020004D08FC3EC700FF300318003048
:10082000C8004808C90049082200A10020004D085E
:10083000FC3EC70047082200A20008302000C70085
:1008400047082200A30020004308C70047082200F1
:10085000A40020003E082200A601A60720003D08B3
:100860002200A501A50720004208F4004108F3007A
:100870004008F2003F08F1008331452383317408BA
:100880002200AA007308A9007208A8007108A70036
:1008900020004D08FC3EF100FF3003180030F2004C
:1008A00023308E31922683312000C7004708FC0098
:1008B0004D08FC3EF100FF3003180030F2007C08C8
:1008C000C7004708F30023308E316C2683312000A7
:1008D000C8004808CA00460845040319752C7C085E
:1008E000C70047082200AB007B2C7C082000C70013
:1008F00047082200A70020004D08C700C80147088C
:10090000F2004808F300F40120308F31682783316A
:1009100020004408430403199F2C8830AE000030A7
:10092000AF000130B0000030B100823187222000DA
:100930002F08BE01BE072E08BD01BD070800BD017E
:10094000BE0108002000D6007E30D50055082200E8
:10095000A000A1012E302000D50055082200A200E1
:1009600020005308D50055082200A40010302000B4
:10097000D50055082200A3002530F1000130F20017
:1009800020005608F3000030F4000830F500003075
:10099000F6008031D2208431FF302200AD00FE30DD
:1009A000AE00B001AF010030200052022130031927
:1009B00051020318E22C5208D801D8075108D70178
:1009C000D707E62C2030D7000030D8003130F100B6
:1009D0000130F2005008F3000030F4005808F6012E
:1009E000F6075708F501F5078031D22084312E3003
:1009F000F1000030F20023308E3192268431200045
:100A0000D50055082200D1003230F2000030F3004A
:100A1000F40120308F31682784312000D901DA01B8
:100A2000540853040319302D8B30AE000030AF0052
:100A30000130B0000030B1008231872284312000C3
:100A40002F08DA01DA072E08D901D907FF305A0634
:100A5000031D2C2DFE305906031D302D8D319B2595
:100A600020005A08D101D1075908D001D007080049
:100A70002000C001B91F492DB609B709B809B90945
:100A8000B60A0319B70A0319B80A0319B90AC0014B
:100A9000C00ABD1F5A2DBA09BB09BC09BD09BA0A53
:100AA0000319BB0A0319BC0A0319BD0A0130BE00B1
:100AB0003E08C0060030C4000030C3000030C20051
:100AC0000030C10039083804370436040319A32D57
:100AD000BF01BF0AB91B782D0130B635B70DB80D6F
:100AE000B90D890B6D2D0130BE003E08BF076A2D80
:100AF0000130C135C20DC30DC40D890B792D3908E4
:100B00003D02031D8D2D38083C02031D8D2D370835
:100B10003B02031D8D2D36083A02031C982D360822
:100B2000BA023708BB3B3808BC3B3908BD3B41140F
:100B30000130B936B80CB70CB60C890B992D0130C1
:100B4000BF02031D782D40080319B12DC109C20948
:100B5000C309C409C10A0319C20A0319C30A031944
:100B6000C40A4408B9004308B8004208B700410865
:100B7000B600080021009A1EBA2D0030FA0000309D
:100B8000F9000030F8000030F7002000911AEA2D3B
:100B90000130F7070030F83D0030F93D0030FA3DF4
:100BA00074087304720471040319C52D7A08803A1D
:100BB000FF007408803A7F02031DE82D7308790254
:100BC000031DE82D72087802031DE82D71087702D5
:100BD000031CC52D7A08803AFF007408803A7F0212
:100BE000031DFC2D73087902031DFC2D7208780289
:100BF000031DFC2D71087702031C092E7408730471
:100C0000720471040319092E0030F1000130F20062
:100C1000080023001908F500F6017508F1007608B0
:100C2000F200080020008E100030D3000030D20007
:100C30000030D1000030D0000E1E3A2E0130D00717
:100C40000030D13D0030D23D0030D33D5308803AD2
:100C5000FF000030803A7F02031D382E7A305202A6
:100C6000031D382E12305102031D382E0130500260
:100C7000031C1C2E5308803AFF000030803A7F028C
:100C8000031D4C2E7A305202031D4C2E113051029E
:100C9000031D4C2EFF305002031C08000E1E0800DE
:100CA0000D148D313325863101302000A100003034
:100CB000A2008D31B325863180302000CE00253052
:100CC000CF008E31292620000D102100AC01AC0A86
:100CD00008002000A900AC01AD012D08803AA70052
:100CE0002108803A2702031D772E20082C020318C2
:100CF000BA2E20002608F4002508F3002408F2008C
:100D00002308F1008531BA25863172082000AB0135
:100D1000AB077108AA01AA0701302B06031D922E0A
:100D200000302A060319A02E2A08A7002C0829073C
:100D3000A800280886000130870027088100A72E18
:100D40002D08A101A1072C08A001A00708002C086C
:100D50002907A7002708860001308700010822061E
:100D6000031DB52E2208031DBA2E0130AC0700303A
:100D7000AD3D6D2E210017100800F701F21FC72EA0
:100D8000F109F209F10A0319F20AF701F70AF41F4F
:100D9000D22EF309F409F30A0319F40A0130F5001D
:100DA0007508F706F801F901720871040319012F9B
:100DB000F601F60AF21BE62E0130F135F20D890B31
:100DC000DD2E0130F5007508F607DA2E0130F83512
:100DD000F90D890BE72E72087402031DF12E7108BC
:100DE0007302031CF82E7108F3027208F43B7814A6
:100DF0000130F236F10C890BF92E0130F602031D99
:100E0000E62E77080319092FF809F909F80A0319DA
:100E1000F90A7908F201F2077808F101F1070800F0
:100E20002100B2015530AD00AA30AE00B101200062
:100E300064082100BA01BA07200063082100B90143
:100E4000B907200060082100B601B60720005F083E
:100E50002100B501B507200062082100B801B807DC
:100E6000200061082100B701B707200066082100B3
:100E7000BC01BC07200065082100BB01BB072B3566
:100E80002C042000E70067082100BD00203020006E
:100E9000A0000030A100AD308F313827873120000D
:100EA00021082100B001B007200020082100AF0177
:100EB000AF07AC01AD308E31BA2608002000B50175
:100EC000043035020318792F27088F31992787318D
:100ED000200035352B3E860087012108C03F2208BF
:100EE000C13F0130A9002908B50704303502031CB1
:100EF000642FB301B401B501043035020318942FF7
:100F000035352B3E86008701403FA900413FAA00AE
:100F10002908B3072A08B43D0130A9002908B507FC
:100F200004303502031C802F0430F1000030F20041
:100F30003408F401F4073308F301F3078631BD26C2
:100F400072082000A801A8077108A701A7070800D8
:100F5000F70021002808F1000430F136890BAD2F8D
:100F60007108F2007208F80078087706F10071083D
:100F7000F8002108F2002008F100F10EF20EF03026
:100F8000F20571080F39F204F030F1057108A00084
:100F90007208A1007835C03E860001308700403FCE
:100FA000F100413FF2007835A03E86000130870015
:100FB000403FF300413FF4007308F400F3012008C0
:100FC0007306F50021087406F60071087504A00088
:100FD00072087604A100080020008E152208F8018E
:100FE000F8072108F701F7070330F9000030FA008D
:100FF0008031112020008E11080020008E1408007E
:101A600020001810080020000E100800FE001200D0
:101A70001E00FE0B372D0034640080010131890BFC
:101A80003D2D003400340034003400340034003480
:101A9000FF34FF34F10021009A1E4B2D23009E1CC1
:101AA0004E2D9A000800FF30F10071082100A800B7
:101AB000FF30F1007108A9000800FA007A08F90067
:101AC0000430F936890B612D79088731A8278D31CB
:101AD0007A080F398731A82708007108F500F50E3C
:101AE000F50DF50D2000180875063F3975069800AC
:101AF000181499137308F500F50E18087506CF39F8
:101B0000750698000800F301F40172087402031DC1
:101B10008B2D710873020318080021001714170891
:101B2000C139143897006300210017100130F30702
:101B30000030F43D852D8D3133258D31013020006D
:101B4000A1000030A2008D31B3258D31210027087E
:101B50002000CF01CF07210026082000CE01CE07AC
:101B60008E312926080020002208F201F207210800
:101B7000F101F1074030F3001F30F4008D31EB2507
:101B80008D317208F801F8077108F701F707003086
:101B9000F9000030FA00803111200800F6007608C4
:101BA000F5007508F7000130F3020030F43BFF3018
:101BB0007406031DDD2DFF3073060319080071083C
:101BC000F500770886008701750881000130F5006F
:101BD0007508F707D32DF501F601711CF32D730875
:101BE000F5077408F63D0130F335F40D890BF42D3B
:101BF0000130F236F10C890BF92D72087104031DC6
:101C0000ED2D7608F201F2077508F101F1070800E1
:101C1000F600F7017308803A803C031D112E72080C
:101C200077020318080076087707230091009513C0
:101C3000151315141308F40077087107F5007508DB
:101C400086008701740881000130F4007408F707EA
:101C50000A2E20000E148E100E1D2C2E0E1A2E2E63
:101C60004F08C601C6074E08C501C5078F31CB27EF
:101C70008E3120004F082100A701A70720004E0841
:101C80002100A601A6070130F1000030F2008D31DD
:101C90008325080004302000DF005F082100B20027
:101CA0005530AD00AA30AE00B10120302000A000B8
:101CB0000030A100AD308F3138278E31200021084F
:101CC0002100B001B007200020082100AF01AF07BC
:101CD000AD308E31BA260800F600F701F801F9019F
:101CE0007908803AF4007208803A7402031D7A2E53
:101CF0007108780203188C2E78087607F4007408AF
:101D00008600013087000108F5007508F7070130EB
:101D1000F8070030F93D702E7308F4007408F707D7
:101D200077080800F5007508F3007308F600F7015E
:101D3000F801F9017908803AF3007208803A7302D9
:101D4000031DA42E710878020318B62E78087607B2
:101D5000F30073088600013087000108F40074085E
:101D6000F7070130F8070030F93D9A2E7703FF3A64
:101D7000FF3E08002000DD002100AA08031DC62E3A
:101D800001302000DB005B082100AA072000DE01F3
:101D9000DE0ADE08031908005D08DB005B08D000DE
:101DA0002030D1000030D2000030D3000030D40009
:101DB000E4308431A2248E3120005008DC005C081D
:101DC000DE00C92EF500F6017308803A803C031D41
:101DD000EB2E7208760203180A2F75087607230087
:101DE000910076087107F4007408860087010108E5
:101DF0009300151555309600AA30960095142000D2
:101E0000121EFF2E1212230015110130F400740867
:101E1000F607E42E230015110800FC01A030840011
:101E20000030850037308D313C258F3120308400E3
:101E3000013085003C308D313C258F3142308400AB
:101E40008D308500E43086000030870008308D3109
:101E500036258F315230840080308500A0308600D6
:101E60000130870040308D31362520008131052931
:101E70002000A2008D3153258F312000A301A40141
:101E80002408803AFB002108803A7B02031D4A2F78
:101E90002008230203185D2F200023082207FB00DF
:101EA0007B088600870101088D315D258F31013067
:101EB0002000A3070030A43D402F2100210820006E
:101EC000A101A107210020082000A001A00708000F
:101ED000F600F701F8017808803AF5007308803AB7
:101EE0007502031D752F720877020318952F770866
:101EF0007607F500750886000130870001088D31EE
:101F00004A258F3174080319902F77087607F5005A
:101F10007508860001308700010874060319952FA3
:101F20000130F7070030F83D6B2F23009E180800A2
:101F3000952F2000A4002408A300A30DA30D2100C9
:101F40001D08200023068339230621009D001D144F
:101F50003230F7000030F8000030F9000030FA00AD
:101F6000803111208F3121009D149D18B52F1C0840
:101F70002000A601A60721001B082000A501A50737
:101F8000111321001D1020002608A201A207250818
:101F9000A101A107080023001E129D171D169E1601
:101FA00020004508B6004608B700890D893B89091D
:101FB000B800B9000030BD007A30BC001230BB0060
:101FC0000030BA00853138258F3120003608C7002F
:101FD0003708C8003808C9003908CA000630CB00E5
:101FE000CA37C90CC80CC70CCB0BF02F4708FF3EF3
:101FF000CC00FF30483DCD004C0823009B0008007A
:020000040001F9
:04000E00EAFFFFDE28
:00000001FF
