:04000000803116280D
:10000800803120007F08F000111C0B280C280D28D7
:100018001110911E10281128132891121328700806
:10002800FF00090084313C2C843021008E00803090
:100038008D008C0100302000CF000030CE00003051
:10004800CD000130CC008830A0001330A1008631EB
:10005800EC2680318830F7001330F8000330F900BF
:100068000030FA0085318925803155302000CB00D9
:100078004B08F1000630F2000030F3000030853103
:10008800B0258031F03020005606031D4D280D3074
:1000980055060319502851286F280030F100003008
:1000A800F2000630F3000030F40055308531FA25AF
:1000B80080310D302000D500F030D6005530CB000F
:1000C8004B08F1000630F2000030F30000308531B3
:1000D800582580316F285B302000CB004B08F10099
:1000E8000430F2000030F30006308531B02580314D
:1000F800FA3020005C06031D8328CE305B06031906
:10010800862887289C28CE30DB00FA30DC003C307B
:10011800DD000030DE005B30CB004B08F10004301E
:10012800F2000030F30006308531582580319C28D4
:1001380080302000AE002530AF008631D9268031CE
:1001480087311E2780310130F1000030F2008631FE
:100158005C26803153302000B7004D30B8004F087E
:10016800BC004E08BB004D08BA004C08B900C030AE
:10017800BD000030BE000130BF000030C00081313A
:1001880094218031873108278031CA2887311E277A
:1001980080310E302000A0000030A1008631792681
:1001A80080318731212780313B30F1000030F20067
:1001B80086315C268031CA28CA288031162800304A
:1001C800F8000030F7000030F6000030F500FF308E
:1001D80071052000A00000307205A10000307305F1
:1001E800A20000307405A3001830A035A10DA20D9F
:1001F800A30D890BF9282008F5042108F604220824
:10020800F7042308F804FF30A0000030A1000030F4
:10021800A2000030A3007108A4007208A5007308AA
:10022800A6007408A7000830A736A60CA50CA40CD5
:10023800890B18292408A0052508A1052608A20568
:100248002708A3051030A035A10DA20DA30D890B19
:1002580027292008F5042108F6042208F7042308B2
:10026800F804FF30A0000030A1000030A2000030E8
:10027800A3007108A4007208A5007308A6007408FA
:10028800A7001030A736A60CA50CA40C890B46298C
:100298002408A0052508A1052608A2052708A30506
:1002A8000830A035A10DA20DA30D890B55292008F2
:1002B800F5042108F6042208F7042308F804FF309F
:1002C800A0000030A1000030A2000030A300710897
:1002D800A4007208A5007308A6007408A7001830C7
:1002E800A736A60CA50CA40C890B74292408A00514
:1002F8002508A1052608A2052708A3052008F50456
:100308002108F6042208F7042308F8047808F40002
:100318007708F3007608F2007508F10093290800C1
:10032800200040083F04031D9A299B29A029083072
:10033800C5000030C600A4290C30C5000030C60036
:100348007E30C10041082200A00020004508FC3E84
:10035800C100FF30463DC2004208C30043082200E6
:10036800A10020004508FC3EC10041082200A2006F
:1003780008302000C10041082200A30020003D08E9
:10038800C10041082200A400200038082200A6016C
:10039800A607200037082200A501A50720003C0871
:1003A800F4003B08F3003A08F2003908F100803104
:1003B800E320813174082200AA007308A90072089A
:1003C800A8007108A70020004508FC3EF100FF3096
:1003D800463DF2005308C1004108F300D43084318F
:1003E800F124813171082000C2004208C400450888
:1003F800FC3EF100FF30463DF200D4308431B92490
:10040800813171082000C1004108D300D3014008A0
:100418003F040319102A112A172A5308C10041085A
:100428002200AB001E2A20005308C1004108220008
:10043800A7001E2A20004608F301F3074508F20129
:10044800F207F401203084317C2481318830200087
:10045800B0000030B1008231CC228131332A08004B
:100468002000A101F41F392A3A2A472AF109F20982
:10047800F309F409F10A0319F20A0319F30A031933
:10048800F40AA101A10AF81F4A2A4B2A5B2AF50996
:10049800F609F709F809F50A0319F60A0319F70A1C
:1004A8000319F80A0130F9007908A1065B2A00301F
:1004B800A5000030A4000030A3000030A20074089A
:1004C80073047204710403196A2A6B2AB22AA00100
:1004D800A00A7A2A0130F135F20DF30DF40D890BDB
:1004E8006F2A0130F9007908A0077A2AF41F7D2ABB
:1004F8007E2A6E2A802A802A0130A235A30DA40DF7
:10050800A50D890B812A74087802031D952A7308A2
:100518007702031D952A72087602031D952A710831
:100528007502031C982A992AA32A7108F5027208F1
:10053800F63B7308F73B7408F83B2214A32A0130F2
:10054800F436F30CF20CF10C890BA42A0130A0024A
:10055800031DAF2AB02A802AB22AB22A2108031D15
:10056800B62AC22AA209A309A409A509A20A03193D
:10057800A30A0319A40A0319A50AC22A2508F40024
:100588002408F3002308F2002208F100CB2A08000F
:1005980003302000AC000030AD00AE0120308631C1
:1005A80095268231220022082000B200B3013208C9
:1005B800B5003308B600220021082000B200B301BC
:1005C8003208B300B2013208B5043308B60435085E
:1005D800013EAC000030363DAD00AE01233086311F
:1005E80095268231220023082000B200B301310889
:1005F8003306031D012B300832060319042B052B83
:10060800422B3108300403190A2B0B2B422BFF30E5
:10061800B000FF30B100512B512B422B303020005D
:10062800B2003208B400292B6130F1000030F2002A
:100638002530F3000130F4000830F5000030F600F2
:100648008531262582314B2B4B2B20003408053E63
:100658008600013087000108043A0319182B4B2B38
:100668004B2B220028082000B200B3013208B0004A
:100678003308B100512B512B4B2B4B2B2200230855
:100688008B3A0319352B1B3A0319122B4B2BFF30CE
:100698002000B000FF30B100512B08000030FA00F4
:1006A8000030F9000030F8000030F700832B0130EB
:1006B800F7070030F83D0030F93D0030FA3D740886
:1006C80073047204710403196A2B6B2B832B7A0849
:1006D800803AFF007408803A7F02031D7D2B73085F
:1006E8007902031D7D2B72087802031D7D2B71088A
:1006F8007702031C802B812B832B892B892B2000CD
:10070800911E872B882B5B2B892B7A08803AFF0058
:100718007408803A7F02031D9B2B73087902031D1E
:100728009B2B72087802031D9B2B71087702031C10
:100738009E2B9F2BAC2B740873047204710403194D
:10074800A62BA72BAC2B0030F1000130F200B62B02
:1007580023001908F500F6017508F1007608F20083
:10076800B62BB62B08002000A900AA01AB01EB2B81
:1007780020002608F4002508F3002408F2002308C6
:10078800F10083315223833171082000A7002A0821
:100798002907A8002808860001308700270881005B
:1007A8002A082907A70027088600013087000108C2
:1007B8002206031DE02BE12BE72B2208031DE52B66
:1007C800E72BFA2BFA2B0130AA070030AB3D2B0898
:1007D800803AA7002108803A2702031DF52B20083C
:1007E8002A02031CF82BF92BBC2BFA2B0800230038
:1007F8001E129D171D169E1620002608F1002708B8
:10080800F200890D893B8909F300F4000030F800F3
:100818007A30F7001230F6000030F50082313422C9
:10082800833174082000AB007308AA007208A9007D
:100838007108A8000030F4000030F3000030F20026
:100848004030F1002B08F8002A08F7002908F600C4
:100858002808F5008231342283317108FF3E2000D8
:10086800AC00FF30723DAD002C0823009B0008004F
:10087800FC0150308400003085000F30873112278A
:100888008431A03084000030850020308731122761
:10089800843120308400013085003C3087311227B4
:1008A8008431FE308400863085005F308600003059
:1008B80087000A308731182784311C30840086303D
:1008C8008500C03086000030870020308731182727
:1008D80084313C30840086308500A03086000130A9
:1008E800870020308731182784312000803118286C
:1008F800F600F701F801A22C77087607F5007508CD
:1009080086000130870001088631C42684317408C6
:10091800031D8F2C9E2C77087607F5007508860036
:100928000130870001087406031D9B2C9C2C9E2C0B
:10093800B22CB22C0130F7070030F83D7808803A25
:10094800F5007308803A7502031DAC2C7208770213
:10095800031CAF2CB02C802CB22CB22C23009E1C74
:10096800B62CB72CB22CB82C0800F5007508F3008B
:100978007308F600F701F801F901D22C7808760718
:10098800F30073088600013087000108F40074083A
:10099800F7070130F8070030F93DD22C7908803A82
:1009A800F3007208803A7302031DDC2C7108780288
:1009B800031CDF2CE02CC22CE12C7708F300F40197
:1009C800F309F409F30A0319F40A7308FF3EF10066
:1009D8000030743DF200F02C0800F600F701F80131
:1009E800F901062D78087607F400740886000130AE
:1009F80087000108F5007508F7070130F80700308F
:100A0800F93D062D7908803AF4007208803A74029C
:100A1800031D102D71087802031C132D142DF62CBC
:100A2800152D7308F4007408F7077708FF3A0030AB
:100A380003190130F400F5017408F1007508F2009B
:100A4800252D08007408FB01FB077308FA01FA0753
:100A58007208F901F9077108F801F807482D7A08B2
:100A680086007B0887000108F70078088600790867
:100A78008700770881000130FA070030FB3D01301C
:100A8800F8070030F93D482D0130F5020030F63BFB
:100A9800FF307606031D522DFF307506031D552DB8
:100AA800562D332D572D0800F500F6017B2D7508BE
:100AB80076072300910076087107F4007408860011
:100AC800870101089300151555309600AA30960045
:100AD80095146E2D2000121E722D732D6E2D12127C
:100AE800230015110130F4007408F6077B2D7308F4
:100AF800803A803C031D822D72087602031C852DE6
:100B0800862D5B2D23001511080087312427853198
:100B18002000960197010130F1000030F2007A08B8
:100B2800F401F4077908F301F3078631AE2685311D
:100B38009D2D780820001702031DA42D77081602A2
:100B4800031CA72DA82D9D2DAC2DAC2D9D2D9D2DC5
:100B58008731242785310800F600F701C92D76086A
:100B68007707230091009513151315141308F40043
:100B780077087107F50075088600870174088100F9
:100B88000130F4007408F707C92D7308803A803CD7
:100B9800031DD02D72087702031CD32DD42DB32D3D
:100BA800D52D0800F501F601D92D711CDC2DDD2DA0
:100BB800E12D7308F5077408F63D0130F335F40D9F
:100BC800890BE22D0130F236F10C890BE72D720802
:100BD8007104031DF02DF12DD92DF22D7608F201A7
:100BE800F2077508F101F107F92D0800F6007608FB
:100BF800F5007508F7000C2E7108F50077088600D7
:100C08008701750881000130F5007508F7070C2E7B
:100C18000130F3020030F43BFF307406031D162E3A
:100C2800FF307306031D192E1A2E002E1B2E0800E6
:100C380000340034103400342034003430340034AC
:100C4800403400345034003460340034703400349C
:100C58008134003491340034A1340034B134003488
:100C6800C1340034D1340034E1340034F134003478
:100C78000034003421340034423400346334003406
:100C880084340034A5340034C6340034E7340034E6
:100C980008340034293400344A3400346B340034C6
:100CA8008C340034AD340034CE340034EF340034A6
:100CB800F301F4016D2E210017141708C1391438F7
:100CC80097006300210017100130F3070030F43D4E
:100CD8006D2E72087402031D732E71087302031CB3
:100CE800762E772E5F2E782E080020002108F2013C
:100CF800F2072008F101F1074030F3001F30F4003B
:100D08008531D62586317208F801F8077108F70190
:100D1800F7070030F9000030FA008531892586315F
:100D280008002000AF002D08A101A1072C08A00190
:100D3800A0072E08FB007B08A2000030A6000030A8
:100D4800A5000030A4000030A3002F088331B7238A
:100D5800863108007108F500F50EF50DF50D200037
:100D6800180875063F397506980018149913730802
:100D7800F500F50E18087506CF39750698000800B5
:100D8800F1007108163A031DCA2ECB2ED02E200072
:100D98008E11CD2ED02ED02E23009E1CD42ED52ED3
:100DA800D02ED62E71089A00080020000E148E103E
:100DB800DD2E0E1DE02EE12EDD2EE22E6008A701AD
:100DC800A7075F08A601A6078331FB238631080021
:100DD80020008E152108F801F8072008F701F70709
:100DE8000330F9000030FA0085318925863120006A
:100DF8008E11080080342534003400340034003467
:100E080000340034FF34FF34FF30F1007108FC0077
:100E1800FF30F10071082000D20008006400800152
:100E28000131890B132F0034FE0012001E00FE0B47
:100E3800192F003420008E10080020008E1408009E
:060E480020001810080054
:020000040001F9
:04000E00EAFFFFDE28
:00000001FF
