:04000000803116280D
:10000800803120007F08F000111C0B280C280D28D7
:100018001110911E10281128132891121328700806
:10002800FF0009008531302D843021008E0080309A
:100038008D008C0100302000D2000030D10000304B
:10004800D0000130CF008830A0001330A1008F31DC
:10005800242780318830F7001330F8000330F90086
:100068000030FA0087311E2780315A302000CE0038
:100078004E08F1000630F2000030F30000308731FE
:1000880045278031F03020005B06031D4D280D30D8
:100098005A060319502851286F280030F100003003
:1000A800F2000630F3000030F4005A308731B227EE
:1000B80080310D302000DA00F030DB005A30CE00FD
:1000C8004E08F1000630F2000030F30000308631AF
:1000D8008C2680316F2860302000CE004E08F10059
:1000E8000430F2000030F3000630873145278031B4
:1000F800FA3020006106031D8328CE3060060319FC
:10010800862887289C28CE30E000FA30E1003C3071
:10011800E2000030E3006030CE004E08F100043009
:10012800F2000030F300063086318C2680319C289E
:1001380080302000AE002530AF008F313627803167
:100148008E31FA2680310130F1000030F2008F3113
:10015800C327803153302000B7004D30B800520813
:10016800BC005108BB005008BA004F08B900C030A5
:10017800BD000030BE000130BF000030C00081313A
:10018800B221803141302000B7004330B800003040
:10019800BC000030BB000030BA000030B900C130EC
:1001A800BD000030BE000030BF000030C00081310B
:1001B800B22180318F310927803187318F278031F3
:1001C800E5288E31FA2680310E302000A00000305C
:1001D800A1008F31A72780318531AE2580318E313E
:1001E800F72680313B30F1000030F2008F31C32711
:1001F8008031E528E528803116280030F8000030E5
:10020800F7000030F6000030F500FF3071052000DF
:10021800A00000307205A10000307305A200003074
:100228007405A3001830A035A10DA20DA30D890BEC
:1002380017292008F5042108F6042208F7042308E2
:10024800F804FF30A0000030A1000030A200003008
:10025800A3007108A4007208A5007308A60074081A
:10026800A7000830A736A60CA50CA40C890B3629C4
:100278002408A0052508A1052608A2052708A30526
:100288001030A035A10DA20DA30D890B452920081A
:10029800F5042108F6042208F7042308F804FF30BF
:1002A800A0000030A1000030A2000030A3007108B7
:1002B800A4007208A5007308A6007408A7001030EF
:1002C800A736A60CA50CA40C890B64292408A00544
:1002D8002508A1052608A2052708A3050830A0358A
:1002E800A10DA20DA30D890B73292008F50421087F
:1002F800F6042208F7042308F804FF30A0000030B1
:10030800A1000030A2000030A3007108A400720808
:10031800A5007308A6007408A7001830A736A60C15
:10032800A50CA40C890B92292408A0052508A10571
:100338002608A2052708A3052008F5042108F604C5
:100348002208F7042308F8047808F4007708F30073
:100358007608F2007508F100B1290800200040086D
:100368003F04031DB829B929BE290830C50000304B
:10037800C600C2290C30C5000030C6007E30C1005E
:1003880041082200A00020004508FC3EC100FF30C3
:10039800463DC2004208C30043082200A1002000D5
:1003A8004508FC3EC10041082200A2000830200098
:1003B800C10041082200A30020003D08C1004108F7
:1003C8002200A400200038082200A601A607200069
:1003D80037082200A501A50720003C08F4003B08C7
:1003E800F3003A08F2003908F10081310121813126
:1003F80074082200AA007308A9007208A8007108EE
:10040800A70020004508FC3EF100FF30463DF20001
:1004180023308531702581312000C1004108D70083
:100428004508FC3EF100FF30463DF2005708C10088
:100438004108F30023308631EE2681312000C200C6
:100448004208C40040083F0403192B2A2C2A322AE8
:100458005708C10041082200AB00392A200057087C
:10046800C10041082200A700392A20004608F301EC
:10047800F3074508F201F207F40120308531EB2536
:10048800813188302000B0000030B10083317F23F3
:1004980081314E2A08002000BD003230BE000030F5
:1004A800BF007E30BC003C082200A000A1012E3015
:1004B8002000BC003C082200A20020003A08BC0032
:1004C8003C082200A40010302000BC003C08220098
:1004D800A3002530F1000130F20020003D08F300B0
:1004E8000030F4000830F5000030F60086315A2656
:1004F8008231FF302200AD00FE30AE00B001AF0106
:1005080000302000390221300319380203188D2ADF
:100518008E2A952A3908C301C3073808C201C207C1
:100528009A2A2030C2000030C3009A2A3130F100E4
:100538000130F2003708F3000030F4004308F601F8
:10054800F6074208F501F50786315A268231200060
:100558003E08FC3EF100FF303F3DF200233085317C
:10056800702582312000BC003C082200D1003230C6
:10057800F2000030F300F40120308531EB258231A0
:100588008B302000B0000030B10083317F238231EE
:1005980020003108C101C1073008C001C007410867
:1005A80040040319D82AD92AE62A00308E1D0130C2
:1005B800BC00BC0DBC0DBC0D0E083C06F7393C0652
:1005C8008E00E62A08002000A101F41FEC2AED2A7B
:1005D800FA2AF109F209F309F409F10A0319F20AEE
:1005E8000319F30A0319F40AA101A10AF81FFD2A45
:1005F800FE2A0E2BF509F609F709F809F50A031979
:10060800F60A0319F70A0319F80A0130F9007908FC
:10061800A1060E2B0030A5000030A4000030A30076
:100628000030A200740873047204710403191D2BAE
:100638001E2B652BA001A00A2D2B0130F135F20DE0
:10064800F30DF40D890B222B0130F9007908A0076E
:100658002D2BF41F302B312B212B332B332B013037
:10066800A235A30DA40DA50D890B342B74087802AF
:10067800031D482B73087702031D482B7208760266
:10068800031D482B71087502031C4B2B4C2B562B52
:100698007108F5027208F63B7308F73B7408F83BDB
:1006A8002214562B0130F436F30CF20CF10C890BA2
:1006B800572B0130A002031D622B632B332B652BB4
:1006C800652B2108031D692B752BA209A309A40911
:1006D800A509A20A0319A30A0319A40A0319A50A5A
:1006E800752B2508F4002408F3002308F2002208DB
:1006F800F1007E2B080003302000AC000030AD0074
:10070800AE0120308F317427833122002208200067
:10071800B200B3013208B5003308B6002200210840
:100728002000B200B3013208B300B2013208B504A8
:100738003308B6043508013EAC000030363DAD0044
:10074800AE0123308F317427833122002308200023
:10075800B200B30131083306031DB42B300832064A
:100768000319B72BB82BF52B310830040319BD2B0F
:10077800BE2BF52BFF30B000FF30B100042C042C49
:10078800F52B30302000B2003208B400DC2B663084
:10079800F1000030F2002530F3000130F400083099
:1007A800F5000030F60086315A268331FE2BFE2BE9
:1007B80020003408053E8600013087000108043A0D
:1007C8000319CB2BFE2BFE2B220028082000B20099
:1007D800B3013208B0003308B100042C042CFE2BFE
:1007E800FE2B220023088B3A0319E82B1B3A031926
:1007F800C52BFE2BFF302000B000FF30B100042CC9
:1008080008000030FA000030F9000030F80000302D
:10081800F700362C0130F7070030F83D0030F93D7D
:100828000030FA3D740873047204710403191D2C16
:100838001E2C362C7A08803AFF007408803A7F0212
:10084800031D302C73087902031D302C72087802BE
:10085800031D302C71087702031C332C342C362CE2
:100868003C2C3C2C2000911E3A2C3B2C0E2C3C2C72
:100878007A08803AFF007408803A7F02031D4E2CE4
:1008880073087902031D4E2C72087802031D4E2C42
:1008980071087702031C512C522C5F2C74087304C6
:1008A800720471040319592C5A2C5F2C0030F10082
:1008B8000130F200692C23001908F500F6017508CB
:1008C800F1007608F200692C692C08002000A900C4
:1008D800AA01AB019E2C20002608F4002508F3008D
:1008E8002408F2002308F1008431052484317108BA
:1008F8002000A7002A082907A80028088600013038
:100908008700270881002A082907A70027088600EA
:100918000130870001082206031D932C942C9A2C81
:100928002208031D982C9A2CAD2CAD2C0130AA0757
:100938000030AB3D2B08803AA7002108803A2702F7
:10094800031DA82C20082A02031CAB2CAC2C6F2CEE
:10095800AD2C080023001E129D171D169E162000A0
:100968002608F1002708F200890D893B8909F30060
:10097800F4000030F8007A30F7001230F60000304A
:10098800F5008231E722843174082000AB00730837
:10099800AA007208A9007108A8000030F40000300D
:1009A800F3000030F2004030F1002B08F8002A086C
:1009B800F7002908F6002808F5008231E72284317B
:1009C8007108FF3E2000AC00FF30723DAD002C08DE
:1009D80023009B000800F7007C08F1000430F13682
:1009E800890BF32C7108F2007208F8007808770672
:1009F800F1007108F80020005408F2005308F100D3
:100A08000430F135F20D890B052D7108D3007208F9
:100A1800D40078080907A03E860001308700403FCF
:100A2800F100413FF20078080907C03E86008701BF
:100A3800403FF300413FF4007308F400F30153080A
:100A48007306F50054087406F60071087504D3009F
:100A580072087604D4000800FC015330840000308A
:100A6800850011308F3103278531A0308400003094
:100A7800850020308F3103278531203084000130F4
:100A880085003C308F3103278531F430840087306E
:100A9800850064308600003087000A308E31FD26DC
:100AA8008531D430840087308500C030860000301E
:100AB800870020308E31FD268531E03084008F306C
:100AC8008500A03086000130870020308E31FD2659
:100AD8008531200080311828F6007608F300730865
:100AE800F7007608F30073082000D600F501F80136
:100AF800F9019A2D78087707F3007308860001300A
:100B080087000108F4007408F50778087707F300F0
:100B180073088600013087000108F400740820007B
:100B2800D8000130F8070030F93D9A2D7908803A4D
:100B3800F3007208803A7302031DA42D710878022D
:100B4800031CA72DA82D7E2DA92D7503FF3AFF3E66
:100B5800AD2D08002100A5015530A000AA30A10044
:100B6800A4016C30AC000F30AD000A302000A000AA
:100B78000030A1008631BD268531200021082100E2
:100B8800A901A907200020082100A801A80788308A
:100B9800AA001330AB004830AE003F30AF00203021
:100BA8002000A0000030A100A03086312826853121
:100BB800200021082100A301A3072000200821000C
:100BC800A201A207A0308F318D2785310800F600D9
:100BD800F701F801112E77087607F50075088600E9
:100BE8000130870001088F31492785317408031DBA
:100BF800FE2D0D2E77087607F50075088600013062
:100C0800870001087406031D0A2E0B2E0D2E212EB7
:100C1800212E0130F7070030F83D7808803AF500BA
:100C28007308803A7502031D1B2E72087702031C95
:100C38001E2E1F2EEF2D212E212E23009E1C252E29
:100C4800262E212E272E08002000A2008F310927EA
:100C580086312000A301A401422E20002308220788
:100C6800FB007B088600870101088F311327863136
:100C780001302000A3070030A43D422E2408803A0A
:100C8800FB002108803A7B02031D4C2E200823021A
:100C9800031C4F2E502E312E512E20005408A10136
:100CA800A1075308A001A007592E08007408FB01EA
:100CB800FB077308FA01FA077208F901F9077108C6
:100CC800F801F8077C2E7A0886007B08870001085F
:100CD800F7007808860079088700770881000130D6
:100CE800FA070030FB3D0130F8070030F93D7C2E53
:100CF8000130F5020030F63BFF307606031D862EE4
:100D0800FF307506031D892E8A2E672E8B2E08004C
:100D1800F500F601AF2E75087607230091007608D6
:100D28007107F400740886008701010893001515FF
:100D380055309600AA3096009514A22E2000121E57
:100D4800A62EA72EA22E1212230015110130F40090
:100D58007408F607AF2E7308803A803C031DB62E40
:100D680072087602031CB92EBA2E8F2E2300151195
:100D7800080020002008FB00FB0DFB0D21001D08CA
:100D88007B0683397B069D001D143230F700003046
:100D9800F8000030F9000030FA0087311E2786314C
:100DA80021009D14D72E9D18DA2EDB2ED72EDC2E8F
:100DB8001C082000A301A30721001B082000A20192
:100DC800A20711132308A101A1072208A001A00767
:100DD800ED2E0800F700F6017708F40074082000EB
:100DE800D600F801F901082F78087707F40074088D
:100DF8008600013087000108F5007508F607013004
:100E0800F8070030F93D082F7908803AF400720895
:100E1800803A7402031D122F71087802031C152FE3
:100E2800162FF82E172F7308F4007408F6077608A3
:100E38001D2F08008E31F426873120009601970176
:100E48000130F1000030F2007A08F401F407790863
:100E5800F301F3078F315E278731322F780820009E
:100E68001702031D392F77081602031C3C2F3D2F4C
:100E7800322F412F412F322F322F8E31F4268731D6
:100E88000800F600F7015E2F760877072300910027
:100E98009513151315141308F40077087107F50056
:100EA800750886008701740881000130F400740811
:100EB800F7075E2F7308803A803C031D652F720880
:100EC8007702031C682F692F482F6A2F0800F50145
:100ED800F6016E2F711C712F722F762F7308F5078C
:100EE8007408F63D0130F335F40D890B772F013086
:100EF800F236F10C890B7C2F72087104031D852FC3
:100F0800862F6E2F872F7608F201F2077508F101F8
:100F1800F1078E2F080004302000C900490821007D
:100F2800A5005530A000AA30A100A401203020005F
:100F3800A0000030A100A03086312826873120008B
:100F480021082100A301A307200020082100A201F5
:100F5800A207A0308F318D2787310800F600760868
:100F6800F5007508F700C42F7108F50077088600AA
:100F78008701750881000130F5007508F707C42F4F
:100F88000130F3020030F43BFF307406031DCE2F0E
:100F9800FF307306031DD12FD22FB82FD32F08008F
:100FA8000034003410340034203400343034003439
:100FB8004034003450340034603400347034003429
:100FC8008134003491340034A1340034B134003415
:100FD800C1340034D1340034E1340034F134003405
:100FE80080342534003400340034003400340034B4
:040FF800FF34FF348F
:101DE80020001810080020008E14080020008E1013
:101DF8000800FE0012001E00FE0BFE2E00346400D8
:101E080080010131890B042F0034FF30F100710883
:101E1800FC00FF30F10071082000D5000800FA002E
:101E28007A08F9000430F936890B172F79088431BC
:101E3800EF248F317A080F398431EF248F3108006D
:101E480020008E152108F801F8072008F701F70788
:101E58000330F9000030FA0087311E278F31200047
:101E68008E11080020000E148E103A2F0E1D3D2FE3
:101E78003E2F3A2F3F2F6508A701A7076408A60140
:101E8800A6078431AE248F310800F1007108163A94
:101E9800031D4F2F502F552F20008E11522F552FD5
:101EA800552F23009E1C592F5A2F552F5B2F710831
:101EB8009A0008007108F500F50EF50DF50D2000E3
:101EC800180875063F397506980018149913730891
:101ED800F500F50E18087506CF3975069800080044
:101EE8002000AF002D08A101A1072C08A001A00720
:101EF8002E08FB007B08A2000030A6000030A500D9
:101F08000030A4000030A3002F0884316A248F31E8
:101F180008002000C8004808C4004408B700203062
:101F2800B8000030B9000130C5004508D907590884
:101F3800C600C7014608BA004708BB0066308231B0
:101F48004F228F31080020002108F201F2072008F3
:101F5800F101F1074030F3001F30F40087316B279F
:101F68008F317208F801F8077108F701F707003098
:101F7800F9000030FA0087311E278F310800F3017D
:101F8800F401D42F210017141708C1391438970009
:101F98006300210017100130F3070030F43DD42FFF
:101FA80072087402031DDA2F71087302031CDD2FF7
:101FB800DE2FC62FDF2F0800003400342134003410
:101FC800423400346334003484340034A53400349B
:101FD800C6340034E734003408340034293400347B
:101FE8004A3400346B3400348C340034AD3400345B
:081FF800CE340034EF34003454
:020000040001F9
:04000E00EAFFFFDE28
:00000001FF
