:04000000803116280D
:10000800803120007F08F000111C0B280C280D28D7
:100018001110911E10281128132891121328700806
:10002800FF0009008F31492FF7007C08F1000430E8
:10003800F136890B1C287108F2007208F80078085C
:100048007706F1007108F80020005708F2005608FA
:10005800F1000430F135F20D890B2E287108D60015
:100068007208D70078080907C03E8600013087006B
:10007800403FF100413FF20078080907A03E8600A2
:1000880001308700403FF300413FF4007308F4005B
:10009800F30156087306F50057087406F600710850
:1000A8007504D60072087604D700080023001E12D3
:1000B8009D171D169E1620004208B3004308B40081
:1000C800890D893B8909B500B6000030BA007A303D
:1000D800B9001230B8000030B7008431A92480314B
:1000E80020003608C7003508C6003408C5003308A4
:1000F800C4000030B6000030B5000030B400403015
:10010800B3004708BA004608B9004508B8004408D3
:10011800B7008431A924803120003308FF3EC8008D
:10012800FF30343DC900480823009B000800003414
:100138000034103400342034003430340034403477
:100148000034503400346034003470340034813466
:10015800003491340034A1340034B1340034C13453
:100168000034D1340034E1340034F1340034003444
:10017800003421340034423400346334003484348D
:100188000034A5340034C6340034E734003408346D
:100198000034293400344A3400346B3400348C344D
:1001A8000034AD340034CE340034EF34003404303D
:1001B8002000C60046082100A9005530A400AA3036
:1001C800A500A80120302000A0000030A100A43024
:1001D8008E31E4268031200021082100A701A707DD
:1001E800200020082100A601A607A4308D31A825EB
:0401F800803108004A
:100200008131820702298531D52D943021008E005D
:100210008D018C010030CD000030CC000030CB00CF
:100220000130CA008830FA001330FB008D313925C7
:1002300081318830F6001330F7000330F8000030C9
:10024000F9008E312A268131C4302000D2005208B4
:10025000F1000630F2000030F30000308E31042649
:100260008131F03021004506031D38290D30440648
:1002700003193B293C295B290030F1000030F200D2
:100280000630F3000030F400C4308D31E2258131B6
:100290000D302100C400F030C500C4302000D20071
:1002A0005208F1000630F2000030F30000308E31C9
:1002B000812681315B295F302000D2005208F10095
:1002C0000430F2000030F30006308E310426813114
:1002D000FA3020006006031D6F29CE305F06031937
:1002E000722973298829CE30DF00FA30E0003C30D3
:1002F000E1000030E2005F30D2005208F10004302B
:10030000F2000030F30006308E31812681318829D9
:1003100080302000CA002530CB008D318F258131FF
:100320000130F1000030F2008D31C52581315330AC
:100330002000B7004D30B80021004D082000BC005F
:1003400021004C082000BB0021004B082000BA000F
:1003500021004A082000B900C030BD000030BE00B6
:100360000130BF000030C0008331582381312000AC
:100370003808D901D9073708D801D80759085804CF
:100380000319C329C429C9298D3108258131C729F9
:10039000C92901302100A0070030A13D41302000D3
:1003A000B7004330B8000030BC000030BB00003064
:1003B000BA000030B900C130BD000030BE000030CE
:1003C000BF000030C000833158238131200038083D
:1003D000D901D9073708D801D80759085804031993
:1003E000F229F329F8298D3108258131F629F829D8
:1003F00001302100A0070030A13D0130F1000030A4
:10040000F2000130F3000030F4008731B22781316F
:100410008731F42781318031DB2081319030200019
:10042000B0000030B100853141258131172A0A30F2
:100430002000A3000030A4008531D52581312000A3
:100440002308D2002408D300D401D5015508B600F2
:100450005408B5005308B4005208B3000030BA0085
:100460003E30B9008030B8000030B7008431A92494
:1004700081311830200033072100CE00FC302000ED
:10048000343D2100CF00FF302000353D2100D00059
:10049000FF302000363D2100D10051082000B60079
:1004A000210050082000B50021004F082000B400B2
:1004B00021004E082000B3000030BA00F730B90028
:1004C0003130B8004030B7008431A9248131200098
:1004D00036082100D500200035082100D400200076
:1004E00034082100D300200033082100D200530833
:1004F000A301A3075208A201A2078D311F25813154
:10050000210053082000C701C7072100520820001E
:10051000C601C6078830C8001330C9006C30CA0055
:100520000F30CB004830CC003F30CD00873127273B
:1005300081318D31052581313B30F1000030F200F1
:100540008D31C5258131172A172A803116280030B0
:10055000F8000030F7000030F6000030F500FF3002
:1005600071052000A00000307205A1000030730565
:10057000A20000307405A3001830A035A10DA20D13
:10058000A30D890BBD2A2008F5042108F6042208D2
:10059000F7042308F804FF30A0000030A100003069
:1005A000A2000030A3007108A4007208A50073081F
:1005B000A6007408A7000830A736A60CA50CA40C4A
:1005C000890BDC2A2408A0052508A1052608A20518
:1005D0002708A3051030A035A10DA20DA30D890B8E
:1005E000EB2A2008F5042108F6042208F704230862
:1005F000F804FF30A0000030A1000030A20000305D
:10060000A3007108A4007208A5007308A60074086E
:10061000A7001030A736A60CA50CA40C890B0A2B3A
:100620002408A0052508A1052608A2052708A3057A
:100630000830A035A10DA20DA30D890B192B2008A0
:10064000F5042108F6042208F7042308F804FF3013
:10065000A0000030A1000030A2000030A30071080B
:10066000A4007208A5007308A6007408A70018303B
:10067000A736A60CA50CA40C890B382B2408A005C2
:100680002508A1052608A2052708A3052008F504CA
:100690002108F6042208F7042308F8047808F40077
:1006A0007708F3007608F2007508F100572B080070
:1006B000200040083F04031D5E2B5F2B642B083095
:1006C000C5000030C600682B0C30C5000030C600E5
:1006D0007E30C10041082200A00020004508FC3EF9
:1006E000C100FF30463DC2004208C300430822005B
:1006F000A10020004508FC3EC10041082200A200E4
:1007000008302000C10041082200A30020003D085D
:10071000C10041082200A400200038082200A601E0
:10072000A607200037082200A501A50720003C08E5
:10073000F4003B08F3003A08F2003908F100823176
:10074000A722833174082200AA007308A900720846
:10075000A8007108A70020004508FC3EF100FF300A
:10076000463DF20023308F31C22783312000C10083
:100770004108DC004508FC3EF100FF30463DF20038
:100780005C08C1004108F30023308E3151268331CB
:100790002000C2004208C40040083F040319D12BC6
:1007A000D22BD82B5C08C10041082200AB00DF2B04
:1007B00020005C08C10041082200A700DF2B2000B8
:1007C0004608F301F3074508F201F207F40120306F
:1007D0008F318527833120003E083D040319F12B1A
:1007E000F22B032C8830B0000030B1008531412558
:1007F000833120003108B801B8073008B701B707C6
:10080000072C072C072CB701B801072C072C080070
:100810002000BD003230BE000030BF007E30BC0082
:100820003C082200A000A1012E302000BC003C08A2
:100830002200A20020003A08BC003C082200A400CC
:1008400010302000BC003C082200A3002530F1003D
:100850000130F20020003D08F3000030F4000830C1
:10086000F5000030F6008E31B2268431FF302200D0
:10087000AD00FE30AE00B001AF0100302000390203
:100880002130031938020318462C472C4E2C390806
:10089000C101C1073808C001C007532C2030C00077
:1008A0000030C100532C3130F1000130F200370824
:1008B000F3000030F4004108F601F6074008F501A6
:1008C000F5078E31B226843120003E08FC3EF1004F
:1008D000FF303F3DF20023308F31C22784312000AA
:1008E000BC003C082200D1003230F2000030F3009E
:1008F000F40120308F31852784312000C201C301EB
:100900003B083A040319852C862C952C8B30B000BB
:100910000030B10085314125843120003108C30108
:10092000C3073008C201C207952C430842040319CB
:100930009A2C9B2CA82C00308E1D0130BC00BC0DC5
:10094000BC0DBC0D0E083C06F7393C068E00A82CE9
:1009500008002000BD01B61FAE2CAF2CBC2CB30983
:10096000B409B509B609B30A0319B40A0319B50ADB
:100970000319B60ABD01BD0ABA1FBF2CC02CD02C6A
:10098000B709B809B909BA09B70A0319B80A0319A6
:10099000B90A0319BA0A0130BB003B08BD06D02CC6
:1009A0000030C1000030C0000030BF000030BE0089
:1009B00036083504340433040319DF2CE02C272DCA
:1009C000BC01BC0AEF2C0130B335B40DB50DB60D2A
:1009D000890BE42C0130BB003B08BC07EF2CB61F91
:1009E000F22CF32CE32CF52CF52C0130BE35BF0D89
:1009F000C00DC10D890BF62C36083A02031D0A2DD5
:100A000035083902031D0A2D34083802031D0A2D4A
:100A100033083702031C0D2D0E2D182D3308B70295
:100A20003408B83B3508B93B3608BA3B3E14182D9C
:100A30000130B636B50CB40CB30C890B192D01304E
:100A4000BC02031D242D252DF52C272D272D3D0817
:100A5000031D2B2D372DBE09BF09C009C109BE0AD0
:100A60000319BF0A0319C00A0319C10A372D410827
:100A7000B6004008B5003F08B4003E08B300402D62
:100A8000080003302000AC000030AD00AE01203083
:100A90008D3176258531220022082000B200B30175
:100AA0003208B5003308B600220021082000B20049
:100AB000B3013208B300B2013208B5043308B604FA
:100AC0003508013EAC000030363DAD00AE012330AC
:100AD0008D3176258531220023082000B200B30134
:100AE00031083306031D762D300832060319792D9F
:100AF0007A2DC22D3108300403197F2D802DC22D8F
:100B0000412D412D412DC22D412D412DC22D303081
:100B10002000B2003208B4009E2DD630F100003023
:100B2000F2002530F3000130F4000830F500003009
:100B3000F6008E31B2268531CE2DCE2D2000340820
:100B4000053E8600013087000108043A03198D2D07
:100B5000CE2DCE2D220028082000B200B30132088D
:100B6000B0003308B100D42DD42D22002708200076
:100B7000B200B3013208B0003308B100D42DD42D37
:100B8000CE2DCE2D22002308883A0319B52D033A25
:100B90000319AA2D1B3A0319872DCE2DFF302000F3
:100BA000B000FF30B100D42D08002000B101B20127
:100BB0003208803AFF0080307F02031DE12D0430AF
:100BC0003102031CE42DE52DE72D0D2E0D2E200006
:100BD0002408FB01FB072308FA01FA078F311627C7
:100BE0008531200031080907273E860087017A08F1
:100BF000C03F7B08C13F0130B1070030B23D320831
:100C0000803AFF0080307F02031D082E043031023D
:100C1000031C0B2E0C2EE72D0D2E2000AF01B00172
:100C2000B101B2013208803AFF0080307F02031D1B
:100C30001B2E04303102031C1E2E1F2E212E412E8E
:100C4000412E200031080907273E86008701403FDA
:100C5000A500413FA6002508AF072608B03D01309A
:100C6000B1070030B23D3208803AFF0080307F0289
:100C7000031D3C2E04303102031C3F2E402E212E3A
:100C8000412E0430F1000030F20020003008F40161
:100C9000F4072F08F301F3078631582685317208CF
:100CA0002000A401A4077108A301A307572E080080
:100CB000F701F21F5C2E5D2E652EF109F209F10A93
:100CC0000319F20AF701F70A652EF41F682E692E40
:100CD000732EF309F409F30A0319F40A0130F5003D
:100CE0007508F706732EF801F901720871040319EB
:100CF0007A2E7B2EB02EF601F60A882E0130F135C1
:100D0000F20D890B7F2E0130F5007508F607882E4D
:100D1000F21F8B2E8C2E7E2E8E2E8E2E0130F835CD
:100D2000F90D890B8F2E72087402031D992E71081C
:100D30007302031C9C2E9D2EA32E7108F3027208D1
:100D4000F43B7814A32E0130F236F10C890BA42E5B
:100D50000130F602031DAD2EAE2E8E2EB02EB02E1B
:100D60007708031DB42EBA2EF809F909F80A0319F9
:100D7000F90ABA2E7908F201F2077808F101F107B1
:100D8000C12E08000030FA000030F9000030F800F1
:100D90000030F700F32E0130F7070030F83D003047
:100DA000F93D0030FA3D74087304720471040319AC
:100DB000DA2EDB2EF32E7A08803AFF007408803A90
:100DC0007F02031DED2E73087902031DED2E7208BC
:100DD0007802031DED2E71087702031CF02EF12E10
:100DE000F32EF92EF92E2000911EF72EF82ECB2E81
:100DF000F92E7A08803AFF007408803A7F02031DBA
:100E00000B2F73087902031D0B2F72087802031D44
:100E10000B2F71087702031C0E2F0F2F1C2F740845
:100E20007304720471040319162F172F1C2F00303E
:100E3000F1000130F200262F23001908F500F60119
:100E40007508F1007608F200262F262F08002100F1
:100E5000A9015530A400AA30A500A80120004B0824
:100E60002100B101B10720004A082100B001B007FC
:100E7000200047082100AD01AD07200046082100F1
:100E8000AC01AC07200049082100AF01AF072000EA
:100E900048082100AE01AE0720004D082100B30133
:100EA000B30720004C082100B201B2072030200017
:100EB000A0000030A100A4308E31E426873120004C
:100EC00021082100A701A707200020082100A60172
:100ED000A607A4308D31A825873108002000A9007D
:100EE000AA01AB01A22F20002608F4002508F30078
:100EF0002408F2002308F1008631C22687317108E8
:100F00002000A7002A082907A80028088600013029
:100F10008700270881002A082907A70027088600DC
:100F20000130870001082206031D972F982F9E2F5E
:100F30002208031D9C2F9E2FB12FB12F0130AA072D
:100F40000030AB3D2B08803AA7002108803A2702E9
:100F5000031DAC2F20082A02031CAF2FB02F732FC4
:100F6000B12F080021001E088F3910389E0072082A
:100F700071040319BC2FBD2FD52F0130F500730A62
:100F8000C22FF535890BC12F7508F60076088D0440
:100F90000130F500730ACD2FF535890BCC2F75087C
:100FA000F600760823008D04ED2F0130F500730A5A
:100FB000DA2FF535890BD92F7508F6007608210050
:100FC0008C040130F500730AE62FF535890BE52F07
:100FD0007508F600760823008C04FC3021009E057D
:100FE0001E119E179D130800FF30F1007108FC00D0
:100FF000FF30F10071082000DA0008008034253449
:101A040020001810080020008E14080020000E107A
:101A14000800FE0012001E00FE0B0C2D00346400B2
:101A240080010131890B122D00340034003400345C
:101A3400003400340034FF34FF3420008E10222D93
:101A44000E1A252D262D222D272D0800FA007A089E
:101A5400F9000430F936890B2C2D790880311820CF
:101A64008D317A080F39803118208D31080020001B
:101A74008E157B08F701F7077A08F601F60703309D
:101A8400F8000030F9008E312A268D3120008E11A5
:101A94000800F1007108163A031D512D522D572DDF
:101AA40020008E11542D572D572D23009E1C5B2D85
:101AB4005C2D572D5D2D71089A0008007108F50002
:101AC400F50EF50DF50D2000180875063F3975065D
:101AD4009800181499137308F500F50E1808750684
:101AE400CF397506980008002000AF002D08A10129
:101AF400A1072C08A001A0072E08FB007B08A20068
:101B04000030A6000030A5000030A4000030A3007F
:101B14002F0887316E278D31080020000E148E1097
:101B2400932D0E1D962D972D932D992D992D0E1ACB
:101B34009C2D9D2D992D9E2D6408C301C307630818
:101B4400C201C20780315A208D3108002000C5002F
:101B5400DE08031DAE2DAF2DB42D0130C4004408A2
:101B6400DE07B42D4508C4004408B7002030B8008F
:101B74000030B9000030BA000030BB00D6308431E8
:101B840008248D310800F301F401D62D2100171427
:101B94001708C13914389700630021001710013069
:101BA400F3070030F43DD62D72087402031DDC2DBA
:101BB40071087302031CDF2DE02DC82DE12D0800F0
:101BC400F6007608F5007508F700F42D7108F500A5
:101BD400770886008701750881000130F5007508D3
:101BE400F707F42D0130F3020030F43BFF307406A4
:101BF400031DFE2DFF307306031D012E022EE82D5A
:101C0400032E0800F600F7011D2E7608770723003F
:101C140091009513151315141308F4007708710730
:101C2400F500750886008701740881000130F4000E
:101C34007408F7071D2E7308803A803C031D242E78
:101C440072087702031C272E282E072E292E08003F
:101C54008D3102258E312000960197010130F1006B
:101C64000030F2007908F401F4077808F301F3076F
:101C74008D3160258E313E2E770820001702031D1A
:101C8400452E76081602031C482E492E3E2E4D2E54
:101C94004D2E3E2E3E2E8D3102258E310800F7004A
:101CA400F6017708F40074082000DB00F801F9015C
:101CB4006B2E78087707F4007408860001308700DB
:101CC4000108F5007508F6070130F8070030F93D02
:101CD4006B2E7908803AF4007208803A7402031D6E
:101CE400752E71087802031C782E792E5B2E7A2EBD
:101CF4007308F4007408F6077608802E0800F500CF
:101D0400F601A42E75087607230091007608710762
:101D1400F4007408860087010108930015155530F6
:101D24009600AA3096009514972E2000121E9B2E22
:101D34009C2E972E1212230015110130F400740802
:101D4400F607A42E7308803A803C031DAB2E72085C
:101D54007602031CAE2EAF2E842E2300151108002C
:101D64007408FB01FB077308FA01FA077208F9010A
:101D7400F9077108F801F807D42E7A0886007B0861
:101D840087000108F700780886007908870077083B
:101D940081000130FA070030FB3D0130F8070030C4
:101DA400F93DD42E0130F5020030F63BFF307606C3
:101DB400031DDE2EFF307506031DE12EE22EBF2E1D
:101DC400E32E08002000A2008731F4278E31200082
:101DD400A301A401FE2E200023082207FB007B0898
:101DE4008600870101088D3128258E3101302000BD
:101DF400A3070030A43DFE2E2408803AFB002108EE
:101E0400803A7B02031D082F20082302031C0B2F9A
:101E14000C2FED2E0D2F20005708A101A107560805
:101E2400A001A007152F08007A082000A000A00D2B
:101E3400A00D21001D082000200683392006210062
:101E44009D001D143230F6000030F7000030F80019
:101E54000030F9008E312A268F3121009D14322F53
:101E64009D18352F362F322F372F1C082000A20142
:101E7400A20721001B082000A101A10711132208B9
:101E8400FB01FB072108FA01FA07482F0800FC01AF
:101E940056308400003085000D308D3111258F318E
:101EA400A0308400003085002A308D3111258F3117
:101EB40020308400013085003C308D3111258F3174
:101EC4008731FE278F31E3008731FF278F31E4000C
:101ED400173084008D308500D630860000308700AE
:101EE40008308D310B258F319B3084008030850084
:101EF400A03086000130870040308D310B258F31B2
:101F0400200081310529F600F701F801AB2F77088D
:101F14007607F500750886000130870001088D31C9
:101F24004B258F317408031D982FA72F7708760748
:101F3400F500750886000130870001087406031D4A
:101F4400A42FA52FA72FBB2FBB2F0130F7070030DD
:101F5400F83D7808803AF5007308803A7502031D4D
:101F6400B52F72087702031CB82FB92F892FBB2F06
:101F7400BB2F23009E1CBF2FC02FBB2FC12F0800D7
:101F8400F6007608F3007308F7007608F300730888
:101F94002000DB00F501F801F901EC2F7808770740
:101FA400F30073088600013087000108F400740808
:101FB400F50778087707F300730886000130870077
:101FC4000108F40074082000DD000130F807003037
:101FD400F93DEC2F7908803AF3007208803A7302D5
:101FE400031DF62F71087802031CF92FFA2FD02F46
:0C1FF400FB2F7503FF3AFF3EFF2F080093
:020000040001F9
:04000E00EAFFFFDE28
:00000001FF
